{
  "address": "0x840508B5Fc7e8d305ed78862cAB02990d3D807A4",
  "abi": [
    {
      "inputs": [],
      "name": "InvalidInitialization",
      "type": "error"
    },
    {
      "inputs": [],
      "name": "NotInitializing",
      "type": "error"
    },
    {
      "anonymous": false,
      "inputs": [
        {
          "indexed": true,
          "internalType": "address",
          "name": "owner",
          "type": "address"
        },
        {
          "indexed": true,
          "internalType": "address",
          "name": "approved",
          "type": "address"
        },
        {
          "indexed": true,
          "internalType": "uint256",
          "name": "tokenId",
          "type": "uint256"
        }
      ],
      "name": "Approval",
      "type": "event"
    },
    {
      "anonymous": false,
      "inputs": [
        {
          "indexed": true,
          "internalType": "address",
          "name": "owner",
          "type": "address"
        },
        {
          "indexed": true,
          "internalType": "address",
          "name": "operator",
          "type": "address"
        },
        {
          "indexed": false,
          "internalType": "bool",
          "name": "approved",
          "type": "bool"
        }
      ],
      "name": "ApprovalForAll",
      "type": "event"
    },
    {
      "anonymous": false,
      "inputs": [
        {
          "indexed": true,
          "internalType": "address",
          "name": "owner",
          "type": "address"
        },
        {
          "indexed": true,
          "internalType": "uint256",
          "name": "nonce",
          "type": "uint256"
        },
        {
          "indexed": true,
          "internalType": "uint256",
          "name": "boardId",
          "type": "uint256"
        },
        {
          "indexed": false,
          "internalType": "uint256",
          "name": "startIndex",
          "type": "uint256"
        }
      ],
      "name": "CreateBoard",
      "type": "event"
    },
    {
      "anonymous": false,
      "inputs": [
        {
          "indexed": true,
          "internalType": "address",
          "name": "owner",
          "type": "address"
        },
        {
          "indexed": true,
          "internalType": "uint256",
          "name": "boardId",
          "type": "uint256"
        },
        {
          "indexed": false,
          "internalType": "uint256",
          "name": "score",
          "type": "uint256"
        }
      ],
      "name": "HighScore",
      "type": "event"
    },
    {
      "anonymous": false,
      "inputs": [
        {
          "indexed": false,
          "internalType": "uint64",
          "name": "version",
          "type": "uint64"
        }
      ],
      "name": "Initialized",
      "type": "event"
    },
    {
      "anonymous": false,
      "inputs": [
        {
          "indexed": true,
          "internalType": "address",
          "name": "owner",
          "type": "address"
        },
        {
          "indexed": true,
          "internalType": "uint256",
          "name": "boardId",
          "type": "uint256"
        },
        {
          "indexed": true,
          "internalType": "enum Game2048.MoveDirection",
          "name": "dir",
          "type": "uint8"
        },
        {
          "indexed": false,
          "internalType": "uint256",
          "name": "newIndex",
          "type": "uint256"
        },
        {
          "indexed": false,
          "internalType": "uint256",
          "name": "extraScore",
          "type": "uint256"
        },
        {
          "indexed": false,
          "internalType": "uint256",
          "name": "totalScore",
          "type": "uint256"
        }
      ],
      "name": "Move",
      "type": "event"
    },
    {
      "anonymous": false,
      "inputs": [
        {
          "indexed": true,
          "internalType": "address",
          "name": "previousOwner",
          "type": "address"
        },
        {
          "indexed": true,
          "internalType": "address",
          "name": "newOwner",
          "type": "address"
        }
      ],
      "name": "OwnershipTransferred",
      "type": "event"
    },
    {
      "anonymous": false,
      "inputs": [
        {
          "indexed": true,
          "internalType": "address",
          "name": "setter",
          "type": "address"
        },
        {
          "indexed": true,
          "internalType": "address",
          "name": "token",
          "type": "address"
        },
        {
          "indexed": false,
          "internalType": "uint256",
          "name": "price",
          "type": "uint256"
        }
      ],
      "name": "SetCreateBoardPrice",
      "type": "event"
    },
    {
      "anonymous": false,
      "inputs": [
        {
          "indexed": true,
          "internalType": "address",
          "name": "from",
          "type": "address"
        },
        {
          "indexed": true,
          "internalType": "address",
          "name": "to",
          "type": "address"
        },
        {
          "indexed": true,
          "internalType": "uint256",
          "name": "tokenId",
          "type": "uint256"
        }
      ],
      "name": "Transfer",
      "type": "event"
    },
    {
      "inputs": [],
      "name": "admin",
      "outputs": [
        {
          "internalType": "address",
          "name": "",
          "type": "address"
        }
      ],
      "stateMutability": "view",
      "type": "function"
    },
    {
      "inputs": [
        {
          "internalType": "address",
          "name": "to",
          "type": "address"
        },
        {
          "internalType": "uint256",
          "name": "tokenId",
          "type": "uint256"
        }
      ],
      "name": "approve",
      "outputs": [],
      "stateMutability": "nonpayable",
      "type": "function"
    },
    {
      "inputs": [
        {
          "internalType": "address",
          "name": "owner",
          "type": "address"
        }
      ],
      "name": "balanceOf",
      "outputs": [
        {
          "internalType": "uint256",
          "name": "",
          "type": "uint256"
        }
      ],
      "stateMutability": "view",
      "type": "function"
    },
    {
      "inputs": [
        {
          "internalType": "address",
          "name": "boardOwner",
          "type": "address"
        },
        {
          "internalType": "address",
          "name": "controller",
          "type": "address"
        },
        {
          "internalType": "address",
          "name": "paymentToken",
          "type": "address"
        },
        {
          "internalType": "uint256",
          "name": "nonce",
          "type": "uint256"
        }
      ],
      "name": "createBoard",
      "outputs": [
        {
          "internalType": "uint256",
          "name": "boardId",
          "type": "uint256"
        },
        {
          "internalType": "uint256",
          "name": "startIndex",
          "type": "uint256"
        }
      ],
      "stateMutability": "payable",
      "type": "function"
    },
    {
      "inputs": [
        {
          "internalType": "address",
          "name": "",
          "type": "address"
        }
      ],
      "name": "createBoardPrice",
      "outputs": [
        {
          "internalType": "uint256",
          "name": "",
          "type": "uint256"
        }
      ],
      "stateMutability": "view",
      "type": "function"
    },
    {
      "inputs": [
        {
          "internalType": "uint256",
          "name": "tokenId",
          "type": "uint256"
        }
      ],
      "name": "getApproved",
      "outputs": [
        {
          "internalType": "address",
          "name": "",
          "type": "address"
        }
      ],
      "stateMutability": "view",
      "type": "function"
    },
    {
      "inputs": [
        {
          "internalType": "uint256",
          "name": "id",
          "type": "uint256"
        }
      ],
      "name": "getBoard",
      "outputs": [
        {
          "components": [
            {
              "internalType": "address",
              "name": "owner",
              "type": "address"
            },
            {
              "internalType": "address",
              "name": "controller",
              "type": "address"
            },
            {
              "internalType": "uint256",
              "name": "id",
              "type": "uint256"
            },
            {
              "internalType": "uint256",
              "name": "score",
              "type": "uint256"
            },
            {
              "internalType": "uint256",
              "name": "moves",
              "type": "uint256"
            },
            {
              "internalType": "uint256[]",
              "name": "tiles",
              "type": "uint256[]"
            }
          ],
          "internalType": "struct Game2048.Board",
          "name": "",
          "type": "tuple"
        }
      ],
      "stateMutability": "view",
      "type": "function"
    },
    {
      "inputs": [
        {
          "internalType": "address",
          "name": "",
          "type": "address"
        }
      ],
      "name": "highScores",
      "outputs": [
        {
          "internalType": "uint256",
          "name": "",
          "type": "uint256"
        }
      ],
      "stateMutability": "view",
      "type": "function"
    },
    {
      "inputs": [
        {
          "internalType": "address",
          "name": "_admin",
          "type": "address"
        },
        {
          "internalType": "contract IToken2048",
          "name": "_token2048",
          "type": "address"
        }
      ],
      "name": "initialize",
      "outputs": [],
      "stateMutability": "nonpayable",
      "type": "function"
    },
    {
      "inputs": [
        {
          "internalType": "address",
          "name": "owner",
          "type": "address"
        },
        {
          "internalType": "address",
          "name": "operator",
          "type": "address"
        }
      ],
      "name": "isApprovedForAll",
      "outputs": [
        {
          "internalType": "bool",
          "name": "",
          "type": "bool"
        }
      ],
      "stateMutability": "view",
      "type": "function"
    },
    {
      "inputs": [],
      "name": "metadataController",
      "outputs": [
        {
          "internalType": "contract IMetadata2048",
          "name": "",
          "type": "address"
        }
      ],
      "stateMutability": "view",
      "type": "function"
    },
    {
      "inputs": [
        {
          "internalType": "uint256",
          "name": "boardId",
          "type": "uint256"
        },
        {
          "internalType": "uint256",
          "name": "moveIndex",
          "type": "uint256"
        },
        {
          "internalType": "enum Game2048.MoveDirection",
          "name": "dir",
          "type": "uint8"
        }
      ],
      "name": "move",
      "outputs": [],
      "stateMutability": "nonpayable",
      "type": "function"
    },
    {
      "inputs": [],
      "name": "name",
      "outputs": [
        {
          "internalType": "string",
          "name": "",
          "type": "string"
        }
      ],
      "stateMutability": "view",
      "type": "function"
    },
    {
      "inputs": [
        {
          "internalType": "uint256",
          "name": "tokenId",
          "type": "uint256"
        }
      ],
      "name": "ownerOf",
      "outputs": [
        {
          "internalType": "address",
          "name": "",
          "type": "address"
        }
      ],
      "stateMutability": "view",
      "type": "function"
    },
    {
      "inputs": [
        {
          "internalType": "uint256",
          "name": "nonce",
          "type": "uint256"
        }
      ],
      "name": "random",
      "outputs": [
        {
          "internalType": "uint256",
          "name": "",
          "type": "uint256"
        }
      ],
      "stateMutability": "view",
      "type": "function"
    },
    {
      "inputs": [
        {
          "internalType": "address",
          "name": "from",
          "type": "address"
        },
        {
          "internalType": "address",
          "name": "to",
          "type": "address"
        },
        {
          "internalType": "uint256",
          "name": "tokenId",
          "type": "uint256"
        }
      ],
      "name": "safeTransferFrom",
      "outputs": [],
      "stateMutability": "nonpayable",
      "type": "function"
    },
    {
      "inputs": [
        {
          "internalType": "address",
          "name": "from",
          "type": "address"
        },
        {
          "internalType": "address",
          "name": "to",
          "type": "address"
        },
        {
          "internalType": "uint256",
          "name": "tokenId",
          "type": "uint256"
        },
        {
          "internalType": "bytes",
          "name": "data",
          "type": "bytes"
        }
      ],
      "name": "safeTransferFrom",
      "outputs": [],
      "stateMutability": "nonpayable",
      "type": "function"
    },
    {
      "inputs": [
        {
          "internalType": "address",
          "name": "operator",
          "type": "address"
        },
        {
          "internalType": "bool",
          "name": "approved",
          "type": "bool"
        }
      ],
      "name": "setApprovalForAll",
      "outputs": [],
      "stateMutability": "nonpayable",
      "type": "function"
    },
    {
      "inputs": [
        {
          "internalType": "address",
          "name": "token",
          "type": "address"
        },
        {
          "internalType": "uint256",
          "name": "price",
          "type": "uint256"
        }
      ],
      "name": "setCreateBoardPrice",
      "outputs": [],
      "stateMutability": "nonpayable",
      "type": "function"
    },
    {
      "inputs": [
        {
          "internalType": "contract IMetadata2048",
          "name": "controller",
          "type": "address"
        }
      ],
      "name": "setMetadataController",
      "outputs": [],
      "stateMutability": "nonpayable",
      "type": "function"
    },
    {
      "inputs": [
        {
          "internalType": "bytes4",
          "name": "interfaceId",
          "type": "bytes4"
        }
      ],
      "name": "supportsInterface",
      "outputs": [
        {
          "internalType": "bool",
          "name": "",
          "type": "bool"
        }
      ],
      "stateMutability": "view",
      "type": "function"
    },
    {
      "inputs": [],
      "name": "symbol",
      "outputs": [
        {
          "internalType": "string",
          "name": "",
          "type": "string"
        }
      ],
      "stateMutability": "view",
      "type": "function"
    },
    {
      "inputs": [],
      "name": "token2048",
      "outputs": [
        {
          "internalType": "contract IToken2048",
          "name": "",
          "type": "address"
        }
      ],
      "stateMutability": "view",
      "type": "function"
    },
    {
      "inputs": [
        {
          "internalType": "uint256",
          "name": "tokenId",
          "type": "uint256"
        }
      ],
      "name": "tokenURI",
      "outputs": [
        {
          "internalType": "string",
          "name": "",
          "type": "string"
        }
      ],
      "stateMutability": "view",
      "type": "function"
    },
    {
      "inputs": [
        {
          "internalType": "address",
          "name": "from",
          "type": "address"
        },
        {
          "internalType": "address",
          "name": "to",
          "type": "address"
        },
        {
          "internalType": "uint256",
          "name": "tokenId",
          "type": "uint256"
        }
      ],
      "name": "transferFrom",
      "outputs": [],
      "stateMutability": "nonpayable",
      "type": "function"
    },
    {
      "inputs": [
        {
          "internalType": "address",
          "name": "newAdmin",
          "type": "address"
        }
      ],
      "name": "transferOwnership",
      "outputs": [],
      "stateMutability": "nonpayable",
      "type": "function"
    },
    {
      "inputs": [
        {
          "internalType": "contract IERC20",
          "name": "token",
          "type": "address"
        }
      ],
      "name": "withdrawERC20",
      "outputs": [],
      "stateMutability": "nonpayable",
      "type": "function"
    },
    {
      "inputs": [],
      "name": "withdrawETH",
      "outputs": [],
      "stateMutability": "nonpayable",
      "type": "function"
    }
  ],
  "transactionHash": "0x457a5473d5abd910867c1a4b3de67498b247653ed3317dca4b4c8ab9de805eb7",
  "args": [],
  "numDeployments": 1,
  "solcInputHash": "660542510875e919183521bb6dea693f",
  "bytecode": "0x60806040523480156200001157600080fd5b506040518060400160405280600a8152602001690c8c0d0e08109bd85c9960b21b8152506040518060400160405280600581526020016419181a1c2160d91b815250816000908162000064919062000121565b50600162000073828262000121565b505050620001ed565b634e487b7160e01b600052604160045260246000fd5b600181811c90821680620000a757607f821691505b602082108103620000c857634e487b7160e01b600052602260045260246000fd5b50919050565b601f8211156200011c57600081815260208120601f850160051c81016020861015620000f75750805b601f850160051c820191505b81811015620001185782815560010162000103565b5050505b505050565b81516001600160401b038111156200013d576200013d6200007c565b62000155816200014e845462000092565b84620000ce565b602080601f8311600181146200018d5760008415620001745750858301515b600019600386901b1c1916600185901b17855562000118565b600085815260208120601f198616915b82811015620001be578886015182559484019460019091019084016200019d565b5085821015620001dd5787850151600019600388901b60f8161c191681555b5050505050600190811b01905550565b6134e380620001fd6000396000f3fe6080604052600436106101b65760003560e01c806395d89b41116100ec578063c87b56dd1161008a578063e985e9c511610064578063e985e9c514610513578063f2fde38b14610533578063f4f3b20014610553578063f851a4401461057357600080fd5b8063c87b56dd146104be578063de7250aa146104de578063e086e5ec146104fe57600080fd5b8063a3c3ad1d116100c6578063a3c3ad1d14610436578063a6fc859314610456578063b863bd371461047e578063b88d4fde1461049e57600080fd5b806395d89b41146103e1578063a22cb465146103f6578063a3a001371461041657600080fd5b806342842e0e11610159578063485cc95511610133578063485cc955146103615780636352211e146103815780636482513a146103a157806370a08231146103c157600080fd5b806342842e0e146102f457806344d76d931461031457806345e09e541461033457600080fd5b8063081812fc11610195578063081812fc1461024d578063095ea7b31461028557806323b872dd146102a757806324c28f8e146102c757600080fd5b8062d8e104146101bb57806301ffc9a7146101fb57806306fdde031461022b575b600080fd5b3480156101c757600080fd5b506101e86101d6366004612d6d565b600b6020526000908152604090205481565b6040519081526020015b60405180910390f35b34801561020757600080fd5b5061021b610216366004612da7565b610593565b60405190151581526020016101f2565b34801561023757600080fd5b506102406105e5565b6040516101f29190612e14565b34801561025957600080fd5b5061026d610268366004612e27565b610677565b6040516001600160a01b0390911681526020016101f2565b34801561029157600080fd5b506102a56102a0366004612e40565b61069e565b005b3480156102b357600080fd5b506102a56102c2366004612e6c565b6107b8565b3480156102d357600080fd5b506101e86102e2366004612d6d565b60096020526000908152604090205481565b34801561030057600080fd5b506102a561030f366004612e6c565b6107e9565b34801561032057600080fd5b506102a561032f366004612d6d565b610804565b34801561034057600080fd5b5061035461034f366004612e27565b610850565b6040516101f29190612ead565b34801561036d57600080fd5b506102a561037c366004612f3e565b61095f565b34801561038d57600080fd5b5061026d61039c366004612e27565b610a97565b3480156103ad57600080fd5b5060065461026d906001600160a01b031681565b3480156103cd57600080fd5b506101e86103dc366004612d6d565b610af7565b3480156103ed57600080fd5b50610240610b7d565b34801561040257600080fd5b506102a5610411366004612f85565b610b8c565b34801561042257600080fd5b506102a5610431366004612fb3565b610b9b565b34801561044257600080fd5b506102a5610451366004612e40565b61103d565b610469610464366004612ff0565b6110c2565b604080519283526020830191909152016101f2565b34801561048a57600080fd5b506101e8610499366004612e27565b61155b565b3480156104aa57600080fd5b506102a56104b93660046130b0565b611591565b3480156104ca57600080fd5b506102406104d9366004612e27565b6115c9565b3480156104ea57600080fd5b5060075461026d906001600160a01b031681565b34801561050a57600080fd5b506102a5611661565b34801561051f57600080fd5b5061021b61052e366004612f3e565b611724565b34801561053f57600080fd5b506102a561054e366004612d6d565b611752565b34801561055f57600080fd5b506102a561056e366004612d6d565b6117d8565b34801561057f57600080fd5b5060085461026d906001600160a01b031681565b60006001600160e01b031982166380ac58cd60e01b14806105c457506001600160e01b03198216635b5e139f60e01b145b806105df57506301ffc9a760e01b6001600160e01b03198316145b92915050565b6060600080546105f49061315f565b80601f01602080910402602001604051908101604052809291908181526020018280546106209061315f565b801561066d5780601f106106425761010080835404028352916020019161066d565b820191906000526020600020905b81548152906001019060200180831161065057829003601f168201915b5050505050905090565b6000610682826118e8565b506000908152600460205260409020546001600160a01b031690565b60006106a982610a97565b9050806001600160a01b0316836001600160a01b03160361071b5760405162461bcd60e51b815260206004820152602160248201527f4552433732313a20617070726f76616c20746f2063757272656e74206f776e656044820152603960f91b60648201526084015b60405180910390fd5b336001600160a01b038216148061073757506107378133611724565b6107a95760405162461bcd60e51b815260206004820152603d60248201527f4552433732313a20617070726f76652063616c6c6572206973206e6f7420746f60448201527f6b656e206f776e6572206f7220617070726f76656420666f7220616c6c0000006064820152608401610712565b6107b3838361194a565b505050565b6107c233826119b8565b6107de5760405162461bcd60e51b815260040161071290613199565b6107b3838383611a17565b6107b383838360405180602001604052806000815250611591565b6008546001600160a01b0316331461082e5760405162461bcd60e51b8152600401610712906131e6565b600780546001600160a01b0319166001600160a01b0392909216919091179055565b61089b6040518060c0016040528060006001600160a01b0316815260200160006001600160a01b03168152602001600081526020016000815260200160008152602001606081525090565b600a82815481106108ae576108ae613209565b60009182526020918290206040805160c081018252600690930290910180546001600160a01b0390811684526001820154168385015260028101548383015260038101546060840152600481015460808401526005810180548351818702810187019094528084529394919360a08601939283018282801561094f57602002820191906000526020600020905b81548152602001906001019080831161093b575b5050505050815250509050919050565b7ff0c57e16840df040f15088dc2f81fe391c3923bec73e23a9662efc9c229c6a008054600160401b810460ff16159067ffffffffffffffff166000811580156109a55750825b905060008267ffffffffffffffff1660011480156109c25750303b155b9050811580156109d0575080155b156109ee5760405163f92ee8a960e01b815260040160405180910390fd5b845467ffffffffffffffff191660011785558315610a1857845460ff60401b1916600160401b1785555b600880546001600160a01b03808a166001600160a01b03199283161790925560068054928916929091169190911790558315610a8e57845460ff60401b19168555604051600181527fc7f505b2f371ae2175ee4913f4499e1f2633a7b5936321eed1cdaeb6115181d29060200160405180910390a15b50505050505050565b6000818152600260205260408120546001600160a01b0316806105df5760405162461bcd60e51b8152602060048201526018602482015277115490cdcc8c4e881a5b9d985b1a59081d1bdad95b88125160421b6044820152606401610712565b60006001600160a01b038216610b615760405162461bcd60e51b815260206004820152602960248201527f4552433732313a2061646472657373207a65726f206973206e6f7420612076616044820152683634b21037bbb732b960b91b6064820152608401610712565b506001600160a01b031660009081526003602052604090205490565b6060600180546105f49061315f565b610b97338383611b7b565b5050565b82600a8181548110610baf57610baf613209565b60009182526020909120600690910201546001600160a01b0316331480610c045750600a8181548110610be457610be4613209565b60009182526020909120600690910201600101546001600160a01b031633145b610c425760405162461bcd60e51b815260206004820152600f60248201526e2737ba103137b0b9321037bbb732b960891b6044820152606401610712565b6000600a8581548110610c5757610c57613209565b60009182526020918290206040805160c081018252600690930290910180546001600160a01b0390811684526001820154168385015260028101548383015260038101546060840152600481015460808401526005810180548351818702810187019094528084529394919360a086019392830182828015610cf857602002820191906000526020600020905b815481526020019060010190808311610ce4575b50505050508152505090506000816080018051809190610d1790613235565b90528514610d5f5760405162461bcd60e51b8152602060048201526015602482015274135bdd9948185b1c9958591e48195e1958dd5d1959605a1b6044820152606401610712565b6000846003811115610d7357610d7361324e565b03610d8857610d8182611c49565b9050610df1565b6001846003811115610d9c57610d9c61324e565b03610daa57610d8182611f46565b6002846003811115610dbe57610dbe61324e565b03610dcc57610d81826121c4565b6003846003811115610de057610de061324e565b03610df157610dee82612440565b90505b8082606001818151610e039190613264565b90525081516001600160a01b03166000908152600b602052604090205460608301511115610e955760608201805183516001600160a01b039081166000908152600b602052604090819020929092558451925191518993909116917ff22f584e271bf2151c92bba9d84c422a1b1067e5895ab5bd0a784a3433222cab91610e8c91815260200190565b60405180910390a35b6006546001600160a01b031615610f2e5760065482516001600160a01b03909116906340c10f1990610ecf84670de0b6b3a7640000613277565b6040516001600160e01b031960e085901b1681526001600160a01b0390921660048301526024820152604401600060405180830381600087803b158015610f1557600080fd5b505af1158015610f29573d6000803e3d6000fd5b505050505b6000610f39836126bb565b50905082600a8881548110610f5057610f50613209565b6000918252602091829020835160069092020180546001600160a01b039283166001600160a01b0319918216178255848401516001830180549190941691161790915560408301516002820155606083015160038201556080830151600482015560a083015180519192610fcc92600585019290910190612c8e565b50905050846003811115610fe257610fe261324e565b8351606080860151604080518681526020810188905280820192909252518b936001600160a01b0316927f301d5d753691406889e943756ef530f89238c8b689ae5571cc20bc7b3cbc09bf928290030190a450505050505050565b6008546001600160a01b031633146110675760405162461bcd60e51b8152600401610712906131e6565b6001600160a01b038216600081815260096020526040908190208390555133907f7491882e04c75a6995072c5bec24d55f0944e6aaeaaacea2bc20b8b2527459b4906110b69085815260200190565b60405180910390a35050565b6001600160a01b03821660009081526009602052604081205481906111295760405162461bcd60e51b815260206004820152601b60248201527f5061796d656e7420746f6b656e206e6f7420737570706f7274656400000000006044820152606401610712565b6001600160a01b03841615158061116a57506000805260096020527fec8156718a8372b1db44bb411437d0870f3e3790d4a08526d024ce1b0b668f6b543410155b6111a15760405162461bcd60e51b8152602060048201526008602482015267556e64657270617960c01b6044820152606401610712565b604080516010808252610220820190925260009160208201610200803683370190505090506111cf816127bc565b60106111da8561155b565b6111e491906132a4565b915060028183815181106111fa576111fa613209565b602090810291909101810191909152600a80546040805160c0810182526001600160a01b03808d1682528b81168287019081529282018481526000606084018181526080850182815260a086018b8152600189018a55989092528451600688027fc65a7bb8d6351c1cf70c95a316cc6a92839c986682d98bc35f958f4883f9d2a8810180549287166001600160a01b031993841617815597517fc65a7bb8d6351c1cf70c95a316cc6a92839c986682d98bc35f958f4883f9d2a9820180549190971692169190911790945591517fc65a7bb8d6351c1cf70c95a316cc6a92839c986682d98bc35f958f4883f9d2aa84015590517fc65a7bb8d6351c1cf70c95a316cc6a92839c986682d98bc35f958f4883f9d2ab830155517fc65a7bb8d6351c1cf70c95a316cc6a92839c986682d98bc35f958f4883f9d2ac8201559351805193985090949193611374937fc65a7bb8d6351c1cf70c95a316cc6a92839c986682d98bc35f958f4883f9d2ad909101929190910190612c8e565b50505061138187846129cf565b6001600160a01b03851615611419576001600160a01b038516600081815260096020526040908190205490516323b872dd60e01b815233600482015230602482015260448101919091526323b872dd906064016020604051808303816000875af11580156113f3573d6000803e3d6000fd5b505050506040513d601f19601f8201168201806040525081019061141791906132c6565b505b346001600160a01b038616611460576000805260096020527fec8156718a8372b1db44bb411437d0870f3e3790d4a08526d024ce1b0b668f6b5461145d90826132e3565b90505b801561150b576000876001600160a01b03168260405160006040518083038185875af1925050503d80600081146114b3576040519150601f19603f3d011682016040523d82523d6000602084013e6114b8565b606091505b50509050806115095760405162461bcd60e51b815260206004820181905260248201527f4661696c656420746f2073656e642067617320746f20636f6e74726f6c6c65726044820152606401610712565b505b8385896001600160a01b03167f4a4ce023310123a2d4d04937f7145333d20cb660405782586d523992d7161dce8660405161154891815260200190565b60405180910390a4505094509492505050565b60408051446020808301919091524282840152606080830194909452825180830390940184526080909101909152815191012090565b61159b33836119b8565b6115b75760405162461bcd60e51b815260040161071290613199565b6115c384848484612b5a565b50505050565b6007546060906001600160a01b03166115f057505060408051602081019091526000815290565b60075460405163c87b56dd60e01b8152600481018490526001600160a01b039091169063c87b56dd90602401600060405180830381865afa158015611639573d6000803e3d6000fd5b505050506040513d6000823e601f3d908101601f191682016040526105df91908101906132f6565b6008546001600160a01b0316331461168b5760405162461bcd60e51b8152600401610712906131e6565b6008546040516001600160a01b0390911690600090829047908381818185875af1925050503d80600081146116dc576040519150601f19603f3d011682016040523d82523d6000602084013e6116e1565b606091505b5050905080610b975760405162461bcd60e51b815260206004820152600f60248201526e15da5d1a191c985dc819985a5b1959608a1b6044820152606401610712565b6001600160a01b03918216600090815260056020908152604080832093909416825291909152205460ff1690565b6008546001600160a01b0316331461177c5760405162461bcd60e51b8152600401610712906131e6565b6008546040516001600160a01b038084169216907f8be0079c531659141344cd1fd0a4f28419497f9722a3daafe3b4186f6b6457e090600090a3600880546001600160a01b0319166001600160a01b0392909216919091179055565b6008546001600160a01b031633146118025760405162461bcd60e51b8152600401610712906131e6565b6008546040516370a0823160e01b81523060048201526001600160a01b038381169263a9059cbb9291169083906370a0823190602401602060405180830381865afa158015611855573d6000803e3d6000fd5b505050506040513d601f19601f82011682018060405250810190611879919061336d565b6040516001600160e01b031960e085901b1681526001600160a01b03909216600483015260248201526044016020604051808303816000875af11580156118c4573d6000803e3d6000fd5b505050506040513d601f19601f82011682018060405250810190610b9791906132c6565b6000818152600260205260409020546001600160a01b03166119475760405162461bcd60e51b8152602060048201526018602482015277115490cdcc8c4e881a5b9d985b1a59081d1bdad95b88125160421b6044820152606401610712565b50565b600081815260046020526040902080546001600160a01b0319166001600160a01b038416908117909155819061197f82610a97565b6001600160a01b03167f8c5be1e5ebec7d5bd14f71427d1e84f3dd0314c0f7b2291e5b200ac8c7c3b92560405160405180910390a45050565b6000806119c483610a97565b9050806001600160a01b0316846001600160a01b031614806119eb57506119eb8185611724565b80611a0f5750836001600160a01b0316611a0484610677565b6001600160a01b0316145b949350505050565b826001600160a01b0316611a2a82610a97565b6001600160a01b031614611a505760405162461bcd60e51b815260040161071290613386565b6001600160a01b038216611ab25760405162461bcd60e51b8152602060048201526024808201527f4552433732313a207472616e7366657220746f20746865207a65726f206164646044820152637265737360e01b6064820152608401610712565b826001600160a01b0316611ac582610a97565b6001600160a01b031614611aeb5760405162461bcd60e51b815260040161071290613386565b600081815260046020908152604080832080546001600160a01b03199081169091556001600160a01b0387811680865260038552838620805460001901905590871680865283862080546001019055868652600290945282852080549092168417909155905184937fddf252ad1be2c89b69c2b068fc378daa952ba7f163c4a11628f55a4df523b3ef91a4505050565b816001600160a01b0316836001600160a01b031603611bdc5760405162461bcd60e51b815260206004820152601960248201527f4552433732313a20617070726f766520746f2063616c6c6572000000000000006044820152606401610712565b6001600160a01b03838116600081815260056020908152604080832094871680845294825291829020805460ff191686151590811790915591519182527f17307eab39ab6107e8899845ad3d59bd9653f200f220920489ca2b5937696c31910160405180910390a3505050565b60a0810151600090611c59612cd9565b604080516080810182526000808252602080830182905282840182905260608301829052925191929091611c8f918691016133cb565b60405160208183030381529060405280519060200120905060005b6004811015611d6b5760005b6004811015611d6257600082826003036004020190506000878281518110611ce057611ce0613209565b60200260200101511115611d5957868181518110611d0057611d00613209565b6020026020010151868460048110611d1a57611d1a613209565b6020020151868560048110611d3157611d31613209565b60200201805160ff6001820181169092521660048110611d5357611d53613209565b60200201525b50600101611cb6565b50600101611caa565b50611d75846127bc565b6040805160808101825260008082526020820181905291810182905260608101829052815b6004811015611ec5576000858260048110611db757611db7613209565b602002015160ff16905060005b81811015611eb7576000888460048110611de057611de0613209565b602002015160018385030360048110611dfb57611dfb613209565b60200201519050808614611e5e57809550858a85878760048110611e2157611e21613209565b60200201805180919060010160ff1660ff1681525060040260ff160181518110611e4d57611e4d613209565b602002602001018181525050611eae565b856002028a856001888860048110611e7857611e78613209565b60200201510360040260ff160181518110611e9557611e95613209565b602002602001018181525050856002028b019a50600095505b50600101611dc4565b506000935050600101611d9a565b508286604051602001611ed891906133cb565b6040516020818303038152906040528051906020012003611f3b5760405162461bcd60e51b815260206004820152601d60248201527f43616e6e6f74206d6f766520696e207468697320646972656374696f6e0000006044820152606401610712565b505050505050919050565b60a0810151600090611f56612cd9565b604080516080810182526000808252602080830182905282840182905260608301829052925191929091611f8c918691016133cb565b60405160208183030381529060405280519060200120905060005b60048110156120655760005b600481101561205c57600082826004020190506000878281518110611fda57611fda613209565b6020026020010151111561205357868181518110611ffa57611ffa613209565b602002602001015186846004811061201457612014613209565b602002015186856004811061202b5761202b613209565b60200201805160ff600182018116909252166004811061204d5761204d613209565b60200201525b50600101611fb3565b50600101611fa7565b5061206f846127bc565b604080516080810182526003808252602082018190529181018290526060810191909152600090815b6004811015611ec55760008582600481106120b5576120b5613209565b602002015160ff16905060005b818110156121b65760008884600481106120de576120de613209565b6020020151600183850303600481106120f9576120f9613209565b6020020151905080861461215d57809550858a8587876004811061211f5761211f613209565b6020020180518091906001900360ff1660ff1681525060040260ff16018151811061214c5761214c613209565b6020026020010181815250506121ad565b856002028a8587876004811061217557612175613209565b602002015160010160040260ff16018151811061219457612194613209565b602002602001018181525050856002028b019a50600095505b506001016120c2565b506000935050600101612098565b60a08101516000906121d4612cd9565b60408051608081018252600080825260208083018290528284018290526060830182905292519192909161220a918691016133cb565b60405160208183030381529060405280519060200120905060005b60048110156122e65760005b60048110156122dd5760008183600402600301039050600087828151811061225b5761225b613209565b602002602001015111156122d45786818151811061227b5761227b613209565b602002602001015186846004811061229557612295613209565b60200201518685600481106122ac576122ac613209565b60200201805160ff60018201811690925216600481106122ce576122ce613209565b60200201525b50600101612231565b50600101612225565b506122f0846127bc565b6040805160808101825260008082526020820181905291810182905260608101829052815b6004811015611ec557600085826004811061233257612332613209565b602002015160ff16905060005b8181101561243257600088846004811061235b5761235b613209565b60200201516001838503036004811061237657612376613209565b602002015190508086146123d957809550858a86866004811061239b5761239b613209565b60200201805180919060010160ff1660ff1681525060ff168660040201815181106123c8576123c8613209565b602002602001018181525050612429565b856002028a60018787600481106123f2576123f2613209565b60200201510360ff1686600402018151811061241057612410613209565b602002602001018181525050856002028b019a50600095505b5060010161233f565b506000935050600101612315565b60a0810151600090612450612cd9565b604080516080810182526000808252602080830182905282840182905260608301829052925191929091612486918691016133cb565b60405160208183030381529060405280519060200120905060005b600481101561255f5760005b6004811015612556576000818360040201905060008782815181106124d4576124d4613209565b6020026020010151111561254d578681815181106124f4576124f4613209565b602002602001015186846004811061250e5761250e613209565b602002015186856004811061252557612525613209565b60200201805160ff600182018116909252166004811061254757612547613209565b60200201525b506001016124ad565b506001016124a1565b50612569846127bc565b6040805160808101825260008082526020820181905291810182905260608101829052815b6004811015611ec55760008582600481106125ab576125ab613209565b602002015160ff16905060005b818110156126ad5760008884600481106125d4576125d4613209565b6020020151600183850303600481106125ef576125ef613209565b6020020151905080861461265157809550858a86866004811061261457612614613209565b60200201805160ff60018201811690925282519116600488020360030190811061264057612640613209565b6020026020010181815250506126a4565b856002028a600187876004811061266a5761266a613209565b60200201510360ff1686600402600301038151811061268b5761268b613209565b602002602001018181525050856002028b019a50600095505b506001016125b8565b50600093505060010161258e565b6000806126c6612d06565b60005b601081101561271e578460a0015181815181106126e8576126e8613209565b6020026020010151600003612716578082848060010195506010811061271057612710613209565b60200201525b6001016126c9565b506000821161275c5760405162461bcd60e51b815260206004820152600a602482015269109bd85c9908199d5b1b60b21b6044820152606401610712565b808261276d4287606001510261155b565b8161277a5761277a61328e565b066010811061278b5761278b613209565b6020020151925060028460a0015184815181106127aa576127aa613209565b60200260200101818152505050915091565b6000816000815181106127d1576127d1613209565b6020026020010181815250506000816001815181106127f2576127f2613209565b60200260200101818152505060008160028151811061281357612813613209565b60200260200101818152505060008160038151811061283457612834613209565b60200260200101818152505060008160048151811061285557612855613209565b60200260200101818152505060008160058151811061287657612876613209565b60200260200101818152505060008160068151811061289757612897613209565b6020026020010181815250506000816007815181106128b8576128b8613209565b6020026020010181815250506000816008815181106128d9576128d9613209565b6020026020010181815250506000816009815181106128fa576128fa613209565b602002602001018181525050600081600a8151811061291b5761291b613209565b602002602001018181525050600081600b8151811061293c5761293c613209565b602002602001018181525050600081600c8151811061295d5761295d613209565b602002602001018181525050600081600d8151811061297e5761297e613209565b602002602001018181525050600081600e8151811061299f5761299f613209565b602002602001018181525050600081600f815181106129c0576129c0613209565b60200260200101818152505050565b6001600160a01b038216612a255760405162461bcd60e51b815260206004820181905260248201527f4552433732313a206d696e7420746f20746865207a65726f20616464726573736044820152606401610712565b6000818152600260205260409020546001600160a01b031615612a8a5760405162461bcd60e51b815260206004820152601c60248201527f4552433732313a20746f6b656e20616c7265616479206d696e746564000000006044820152606401610712565b6000818152600260205260409020546001600160a01b031615612aef5760405162461bcd60e51b815260206004820152601c60248201527f4552433732313a20746f6b656e20616c7265616479206d696e746564000000006044820152606401610712565b6001600160a01b038216600081815260036020908152604080832080546001019055848352600290915280822080546001600160a01b0319168417905551839291907fddf252ad1be2c89b69c2b068fc378daa952ba7f163c4a11628f55a4df523b3ef908290a45050565b612b65848484611a17565b612b7184848484612b8d565b6115c35760405162461bcd60e51b815260040161071290613401565b60006001600160a01b0384163b15612c8357604051630a85bd0160e11b81526001600160a01b0385169063150b7a0290612bd1903390899088908890600401613453565b6020604051808303816000875af1925050508015612c0c575060408051601f3d908101601f19168201909252612c0991810190613490565b60015b612c69573d808015612c3a576040519150601f19603f3d011682016040523d82523d6000602084013e612c3f565b606091505b508051600003612c615760405162461bcd60e51b815260040161071290613401565b805181602001fd5b6001600160e01b031916630a85bd0160e11b149050611a0f565b506001949350505050565b828054828255906000526020600020908101928215612cc9579160200282015b82811115612cc9578251825591602001919060010190612cae565b50612cd5929150612d25565b5090565b60405180608001604052806004905b612cf0612d3a565b815260200190600190039081612ce85790505090565b6040518061020001604052806010906020820280368337509192915050565b5b80821115612cd55760008155600101612d26565b60405180608001604052806004906020820280368337509192915050565b6001600160a01b038116811461194757600080fd5b600060208284031215612d7f57600080fd5b8135612d8a81612d58565b9392505050565b6001600160e01b03198116811461194757600080fd5b600060208284031215612db957600080fd5b8135612d8a81612d91565b60005b83811015612ddf578181015183820152602001612dc7565b50506000910152565b60008151808452612e00816020860160208601612dc4565b601f01601f19169290920160200192915050565b602081526000612d8a6020830184612de8565b600060208284031215612e3957600080fd5b5035919050565b60008060408385031215612e5357600080fd5b8235612e5e81612d58565b946020939093013593505050565b600080600060608486031215612e8157600080fd5b8335612e8c81612d58565b92506020840135612e9c81612d58565b929592945050506040919091013590565b6000602080835260e0830160018060a01b0380865116838601528083870151166040860152506040850151606085015260608501516080850152608085015160a085015260a085015160c080860152818151808452610100870191508483019350600092505b80831015612f335783518252928401926001929092019190840190612f13565b509695505050505050565b60008060408385031215612f5157600080fd5b8235612f5c81612d58565b91506020830135612f6c81612d58565b809150509250929050565b801515811461194757600080fd5b60008060408385031215612f9857600080fd5b8235612fa381612d58565b91506020830135612f6c81612f77565b600080600060608486031215612fc857600080fd5b8335925060208401359150604084013560048110612fe557600080fd5b809150509250925092565b6000806000806080858703121561300657600080fd5b843561301181612d58565b9350602085013561302181612d58565b9250604085013561303181612d58565b9396929550929360600135925050565b634e487b7160e01b600052604160045260246000fd5b604051601f8201601f1916810167ffffffffffffffff8111828210171561308057613080613041565b604052919050565b600067ffffffffffffffff8211156130a2576130a2613041565b50601f01601f191660200190565b600080600080608085870312156130c657600080fd5b84356130d181612d58565b935060208501356130e181612d58565b925060408501359150606085013567ffffffffffffffff81111561310457600080fd5b8501601f8101871361311557600080fd5b803561312861312382613088565b613057565b81815288602083850101111561313d57600080fd5b8160208401602083013760006020838301015280935050505092959194509250565b600181811c9082168061317357607f821691505b60208210810361319357634e487b7160e01b600052602260045260246000fd5b50919050565b6020808252602d908201527f4552433732313a2063616c6c6572206973206e6f7420746f6b656e206f776e6560408201526c1c881bdc88185c1c1c9bdd9959609a1b606082015260800190565b6020808252600990820152682337b93134b23232b760b91b604082015260600190565b634e487b7160e01b600052603260045260246000fd5b634e487b7160e01b600052601160045260246000fd5b6000600182016132475761324761321f565b5060010190565b634e487b7160e01b600052602160045260246000fd5b808201808211156105df576105df61321f565b80820281158282048414176105df576105df61321f565b634e487b7160e01b600052601260045260246000fd5b6000826132c157634e487b7160e01b600052601260045260246000fd5b500690565b6000602082840312156132d857600080fd5b8151612d8a81612f77565b818103818111156105df576105df61321f565b60006020828403121561330857600080fd5b815167ffffffffffffffff81111561331f57600080fd5b8201601f8101841361333057600080fd5b805161333e61312382613088565b81815285602083850101111561335357600080fd5b613364826020830160208601612dc4565b95945050505050565b60006020828403121561337f57600080fd5b5051919050565b60208082526025908201527f4552433732313a207472616e736665722066726f6d20696e636f72726563742060408201526437bbb732b960d91b606082015260800190565b815160009082906020808601845b838110156133f5578151855293820193908201906001016133d9565b50929695505050505050565b60208082526032908201527f4552433732313a207472616e7366657220746f206e6f6e20455243373231526560408201527131b2b4bb32b91034b6b83632b6b2b73a32b960711b606082015260800190565b6001600160a01b038581168252841660208201526040810183905260806060820181905260009061348690830184612de8565b9695505050505050565b6000602082840312156134a257600080fd5b8151612d8a81612d9156fea264697066735822122038d905552d4b5e7b1d882edec86d3f3f8e8c2b065afc2b6c700e6719ef30458f64736f6c63430008130033",
  "devdoc": {
    "errors": {
      "InvalidInitialization()": [
        {
          "details": "The contract is already initialized."
        }
      ],
      "NotInitializing()": [
        {
          "details": "The contract is not initializing."
        }
      ]
    },
    "events": {
      "Approval(address,address,uint256)": {
        "details": "Emitted when `owner` enables `approved` to manage the `tokenId` token."
      },
      "ApprovalForAll(address,address,bool)": {
        "details": "Emitted when `owner` enables or disables (`approved`) `operator` to manage all of its assets."
      },
      "Initialized(uint64)": {
        "details": "Triggered when the contract has been initialized or reinitialized."
      },
      "Transfer(address,address,uint256)": {
        "details": "Emitted when `tokenId` token is transferred from `from` to `to`."
      }
    },
    "kind": "dev",
    "methods": {
      "approve(address,uint256)": {
        "details": "See {IERC721-approve}."
      },
      "balanceOf(address)": {
        "details": "See {IERC721-balanceOf}."
      },
      "getApproved(uint256)": {
        "details": "See {IERC721-getApproved}."
      },
      "isApprovedForAll(address,address)": {
        "details": "See {IERC721-isApprovedForAll}."
      },
      "name()": {
        "details": "See {IERC721Metadata-name}."
      },
      "ownerOf(uint256)": {
        "details": "See {IERC721-ownerOf}."
      },
      "safeTransferFrom(address,address,uint256)": {
        "details": "See {IERC721-safeTransferFrom}."
      },
      "safeTransferFrom(address,address,uint256,bytes)": {
        "details": "See {IERC721-safeTransferFrom}."
      },
      "setApprovalForAll(address,bool)": {
        "details": "See {IERC721-setApprovalForAll}."
      },
      "supportsInterface(bytes4)": {
        "details": "See {IERC165-supportsInterface}."
      },
      "symbol()": {
        "details": "See {IERC721Metadata-symbol}."
      },
      "tokenURI(uint256)": {
        "details": "See {IERC721Metadata-tokenURI}."
      },
      "transferFrom(address,address,uint256)": {
        "details": "See {IERC721-transferFrom}."
      }
    },
    "version": 1
  },
  "userdoc": {
    "kind": "user",
    "methods": {},
    "version": 1
  },
  "storageLayout": {
    "storage": [
      {
        "astId": 103,
        "contract": "contracts/Game2048.sol:Game2048",
        "label": "_name",
        "offset": 0,
        "slot": "0",
        "type": "t_string_storage"
      },
      {
        "astId": 105,
        "contract": "contracts/Game2048.sol:Game2048",
        "label": "_symbol",
        "offset": 0,
        "slot": "1",
        "type": "t_string_storage"
      },
      {
        "astId": 109,
        "contract": "contracts/Game2048.sol:Game2048",
        "label": "_owners",
        "offset": 0,
        "slot": "2",
        "type": "t_mapping(t_uint256,t_address)"
      },
      {
        "astId": 113,
        "contract": "contracts/Game2048.sol:Game2048",
        "label": "_balances",
        "offset": 0,
        "slot": "3",
        "type": "t_mapping(t_address,t_uint256)"
      },
      {
        "astId": 117,
        "contract": "contracts/Game2048.sol:Game2048",
        "label": "_tokenApprovals",
        "offset": 0,
        "slot": "4",
        "type": "t_mapping(t_uint256,t_address)"
      },
      {
        "astId": 123,
        "contract": "contracts/Game2048.sol:Game2048",
        "label": "_operatorApprovals",
        "offset": 0,
        "slot": "5",
        "type": "t_mapping(t_address,t_mapping(t_address,t_bool))"
      },
      {
        "astId": 2768,
        "contract": "contracts/Game2048.sol:Game2048",
        "label": "token2048",
        "offset": 0,
        "slot": "6",
        "type": "t_contract(IToken2048)4516"
      },
      {
        "astId": 2771,
        "contract": "contracts/Game2048.sol:Game2048",
        "label": "metadataController",
        "offset": 0,
        "slot": "7",
        "type": "t_contract(IMetadata2048)4502"
      },
      {
        "astId": 2773,
        "contract": "contracts/Game2048.sol:Game2048",
        "label": "admin",
        "offset": 0,
        "slot": "8",
        "type": "t_address"
      },
      {
        "astId": 2777,
        "contract": "contracts/Game2048.sol:Game2048",
        "label": "createBoardPrice",
        "offset": 0,
        "slot": "9",
        "type": "t_mapping(t_address,t_uint256)"
      },
      {
        "astId": 2800,
        "contract": "contracts/Game2048.sol:Game2048",
        "label": "boards",
        "offset": 0,
        "slot": "10",
        "type": "t_array(t_struct(Board)2796_storage)dyn_storage"
      },
      {
        "astId": 2804,
        "contract": "contracts/Game2048.sol:Game2048",
        "label": "highScores",
        "offset": 0,
        "slot": "11",
        "type": "t_mapping(t_address,t_uint256)"
      },
      {
        "astId": 2808,
        "contract": "contracts/Game2048.sol:Game2048",
        "label": "__gap",
        "offset": 0,
        "slot": "12",
        "type": "t_array(t_uint256)100_storage"
      }
    ],
    "types": {
      "t_address": {
        "encoding": "inplace",
        "label": "address",
        "numberOfBytes": "20"
      },
      "t_array(t_struct(Board)2796_storage)dyn_storage": {
        "base": "t_struct(Board)2796_storage",
        "encoding": "dynamic_array",
        "label": "struct Game2048.Board[]",
        "numberOfBytes": "32"
      },
      "t_array(t_uint256)100_storage": {
        "base": "t_uint256",
        "encoding": "inplace",
        "label": "uint256[100]",
        "numberOfBytes": "3200"
      },
      "t_array(t_uint256)dyn_storage": {
        "base": "t_uint256",
        "encoding": "dynamic_array",
        "label": "uint256[]",
        "numberOfBytes": "32"
      },
      "t_bool": {
        "encoding": "inplace",
        "label": "bool",
        "numberOfBytes": "1"
      },
      "t_contract(IMetadata2048)4502": {
        "encoding": "inplace",
        "label": "contract IMetadata2048",
        "numberOfBytes": "20"
      },
      "t_contract(IToken2048)4516": {
        "encoding": "inplace",
        "label": "contract IToken2048",
        "numberOfBytes": "20"
      },
      "t_mapping(t_address,t_bool)": {
        "encoding": "mapping",
        "key": "t_address",
        "label": "mapping(address => bool)",
        "numberOfBytes": "32",
        "value": "t_bool"
      },
      "t_mapping(t_address,t_mapping(t_address,t_bool))": {
        "encoding": "mapping",
        "key": "t_address",
        "label": "mapping(address => mapping(address => bool))",
        "numberOfBytes": "32",
        "value": "t_mapping(t_address,t_bool)"
      },
      "t_mapping(t_address,t_uint256)": {
        "encoding": "mapping",
        "key": "t_address",
        "label": "mapping(address => uint256)",
        "numberOfBytes": "32",
        "value": "t_uint256"
      },
      "t_mapping(t_uint256,t_address)": {
        "encoding": "mapping",
        "key": "t_uint256",
        "label": "mapping(uint256 => address)",
        "numberOfBytes": "32",
        "value": "t_address"
      },
      "t_string_storage": {
        "encoding": "bytes",
        "label": "string",
        "numberOfBytes": "32"
      },
      "t_struct(Board)2796_storage": {
        "encoding": "inplace",
        "label": "struct Game2048.Board",
        "members": [
          {
            "astId": 2784,
            "contract": "contracts/Game2048.sol:Game2048",
            "label": "owner",
            "offset": 0,
            "slot": "0",
            "type": "t_address"
          },
          {
            "astId": 2786,
            "contract": "contracts/Game2048.sol:Game2048",
            "label": "controller",
            "offset": 0,
            "slot": "1",
            "type": "t_address"
          },
          {
            "astId": 2788,
            "contract": "contracts/Game2048.sol:Game2048",
            "label": "id",
            "offset": 0,
            "slot": "2",
            "type": "t_uint256"
          },
          {
            "astId": 2790,
            "contract": "contracts/Game2048.sol:Game2048",
            "label": "score",
            "offset": 0,
            "slot": "3",
            "type": "t_uint256"
          },
          {
            "astId": 2792,
            "contract": "contracts/Game2048.sol:Game2048",
            "label": "moves",
            "offset": 0,
            "slot": "4",
            "type": "t_uint256"
          },
          {
            "astId": 2795,
            "contract": "contracts/Game2048.sol:Game2048",
            "label": "tiles",
            "offset": 0,
            "slot": "5",
            "type": "t_array(t_uint256)dyn_storage"
          }
        ],
        "numberOfBytes": "192"
      },
      "t_uint256": {
        "encoding": "inplace",
        "label": "uint256",
        "numberOfBytes": "32"
      }
    }
  }
}