{
  "address": "0xAE008A681045f2015B2251567B768d92C108F5c9",
  "abi": [
    {
      "inputs": [
        {
          "internalType": "address",
          "name": "_game2048Address",
          "type": "address"
        }
      ],
      "stateMutability": "nonpayable",
      "type": "constructor"
    },
    {
      "inputs": [],
      "name": "InvalidGame2048Address",
      "type": "error"
    },
    {
      "inputs": [],
      "name": "NoNewScoreToClaim",
      "type": "error"
    },
    {
      "inputs": [],
      "name": "NotBoardOwner",
      "type": "error"
    },
    {
      "anonymous": false,
      "inputs": [
        {
          "indexed": true,
          "internalType": "address",
          "name": "account",
          "type": "address"
        },
        {
          "indexed": true,
          "internalType": "address",
          "name": "operator",
          "type": "address"
        },
        {
          "indexed": false,
          "internalType": "bool",
          "name": "approved",
          "type": "bool"
        }
      ],
      "name": "ApprovalForAll",
      "type": "event"
    },
    {
      "anonymous": false,
      "inputs": [
        {
          "indexed": true,
          "internalType": "address",
          "name": "previousOwner",
          "type": "address"
        },
        {
          "indexed": true,
          "internalType": "address",
          "name": "newOwner",
          "type": "address"
        }
      ],
      "name": "OwnershipTransferred",
      "type": "event"
    },
    {
      "anonymous": false,
      "inputs": [
        {
          "indexed": true,
          "internalType": "address",
          "name": "boardOwner",
          "type": "address"
        },
        {
          "indexed": false,
          "internalType": "uint256",
          "name": "boardId",
          "type": "uint256"
        },
        {
          "indexed": false,
          "internalType": "uint256",
          "name": "scoreToMint",
          "type": "uint256"
        }
      ],
      "name": "RewardClaimed",
      "type": "event"
    },
    {
      "anonymous": false,
      "inputs": [
        {
          "indexed": true,
          "internalType": "address",
          "name": "operator",
          "type": "address"
        },
        {
          "indexed": true,
          "internalType": "address",
          "name": "from",
          "type": "address"
        },
        {
          "indexed": true,
          "internalType": "address",
          "name": "to",
          "type": "address"
        },
        {
          "indexed": false,
          "internalType": "uint256[]",
          "name": "ids",
          "type": "uint256[]"
        },
        {
          "indexed": false,
          "internalType": "uint256[]",
          "name": "values",
          "type": "uint256[]"
        }
      ],
      "name": "TransferBatch",
      "type": "event"
    },
    {
      "anonymous": false,
      "inputs": [
        {
          "indexed": true,
          "internalType": "address",
          "name": "operator",
          "type": "address"
        },
        {
          "indexed": true,
          "internalType": "address",
          "name": "from",
          "type": "address"
        },
        {
          "indexed": true,
          "internalType": "address",
          "name": "to",
          "type": "address"
        },
        {
          "indexed": false,
          "internalType": "uint256",
          "name": "id",
          "type": "uint256"
        },
        {
          "indexed": false,
          "internalType": "uint256",
          "name": "value",
          "type": "uint256"
        }
      ],
      "name": "TransferSingle",
      "type": "event"
    },
    {
      "anonymous": false,
      "inputs": [
        {
          "indexed": false,
          "internalType": "string",
          "name": "value",
          "type": "string"
        },
        {
          "indexed": true,
          "internalType": "uint256",
          "name": "id",
          "type": "uint256"
        }
      ],
      "name": "URI",
      "type": "event"
    },
    {
      "inputs": [
        {
          "internalType": "address",
          "name": "account",
          "type": "address"
        },
        {
          "internalType": "uint256",
          "name": "id",
          "type": "uint256"
        }
      ],
      "name": "balanceOf",
      "outputs": [
        {
          "internalType": "uint256",
          "name": "",
          "type": "uint256"
        }
      ],
      "stateMutability": "view",
      "type": "function"
    },
    {
      "inputs": [
        {
          "internalType": "address[]",
          "name": "accounts",
          "type": "address[]"
        },
        {
          "internalType": "uint256[]",
          "name": "ids",
          "type": "uint256[]"
        }
      ],
      "name": "balanceOfBatch",
      "outputs": [
        {
          "internalType": "uint256[]",
          "name": "",
          "type": "uint256[]"
        }
      ],
      "stateMutability": "view",
      "type": "function"
    },
    {
      "inputs": [
        {
          "internalType": "uint256",
          "name": "boardId",
          "type": "uint256"
        }
      ],
      "name": "claim",
      "outputs": [],
      "stateMutability": "nonpayable",
      "type": "function"
    },
    {
      "inputs": [],
      "name": "game2048",
      "outputs": [
        {
          "internalType": "contract IGame2048",
          "name": "",
          "type": "address"
        }
      ],
      "stateMutability": "view",
      "type": "function"
    },
    {
      "inputs": [
        {
          "internalType": "uint256",
          "name": "boardId",
          "type": "uint256"
        }
      ],
      "name": "getLastClaimedScore",
      "outputs": [
        {
          "internalType": "uint256",
          "name": "",
          "type": "uint256"
        }
      ],
      "stateMutability": "view",
      "type": "function"
    },
    {
      "inputs": [
        {
          "internalType": "address",
          "name": "account",
          "type": "address"
        },
        {
          "internalType": "address",
          "name": "operator",
          "type": "address"
        }
      ],
      "name": "isApprovedForAll",
      "outputs": [
        {
          "internalType": "bool",
          "name": "",
          "type": "bool"
        }
      ],
      "stateMutability": "view",
      "type": "function"
    },
    {
      "inputs": [
        {
          "internalType": "uint256",
          "name": "",
          "type": "uint256"
        }
      ],
      "name": "lastClaimedScores",
      "outputs": [
        {
          "internalType": "uint256",
          "name": "",
          "type": "uint256"
        }
      ],
      "stateMutability": "view",
      "type": "function"
    },
    {
      "inputs": [],
      "name": "owner",
      "outputs": [
        {
          "internalType": "address",
          "name": "",
          "type": "address"
        }
      ],
      "stateMutability": "view",
      "type": "function"
    },
    {
      "inputs": [],
      "name": "renounceOwnership",
      "outputs": [],
      "stateMutability": "nonpayable",
      "type": "function"
    },
    {
      "inputs": [
        {
          "internalType": "address",
          "name": "from",
          "type": "address"
        },
        {
          "internalType": "address",
          "name": "to",
          "type": "address"
        },
        {
          "internalType": "uint256[]",
          "name": "ids",
          "type": "uint256[]"
        },
        {
          "internalType": "uint256[]",
          "name": "amounts",
          "type": "uint256[]"
        },
        {
          "internalType": "bytes",
          "name": "data",
          "type": "bytes"
        }
      ],
      "name": "safeBatchTransferFrom",
      "outputs": [],
      "stateMutability": "nonpayable",
      "type": "function"
    },
    {
      "inputs": [
        {
          "internalType": "address",
          "name": "from",
          "type": "address"
        },
        {
          "internalType": "address",
          "name": "to",
          "type": "address"
        },
        {
          "internalType": "uint256",
          "name": "id",
          "type": "uint256"
        },
        {
          "internalType": "uint256",
          "name": "amount",
          "type": "uint256"
        },
        {
          "internalType": "bytes",
          "name": "data",
          "type": "bytes"
        }
      ],
      "name": "safeTransferFrom",
      "outputs": [],
      "stateMutability": "nonpayable",
      "type": "function"
    },
    {
      "inputs": [
        {
          "internalType": "address",
          "name": "operator",
          "type": "address"
        },
        {
          "internalType": "bool",
          "name": "approved",
          "type": "bool"
        }
      ],
      "name": "setApprovalForAll",
      "outputs": [],
      "stateMutability": "nonpayable",
      "type": "function"
    },
    {
      "inputs": [
        {
          "internalType": "address",
          "name": "_game2048Address",
          "type": "address"
        }
      ],
      "name": "setGame2048Address",
      "outputs": [],
      "stateMutability": "nonpayable",
      "type": "function"
    },
    {
      "inputs": [
        {
          "internalType": "bytes4",
          "name": "interfaceId",
          "type": "bytes4"
        }
      ],
      "name": "supportsInterface",
      "outputs": [
        {
          "internalType": "bool",
          "name": "",
          "type": "bool"
        }
      ],
      "stateMutability": "view",
      "type": "function"
    },
    {
      "inputs": [
        {
          "internalType": "address",
          "name": "newOwner",
          "type": "address"
        }
      ],
      "name": "transferOwnership",
      "outputs": [],
      "stateMutability": "nonpayable",
      "type": "function"
    },
    {
      "inputs": [
        {
          "internalType": "uint256",
          "name": "",
          "type": "uint256"
        }
      ],
      "name": "uri",
      "outputs": [
        {
          "internalType": "string",
          "name": "",
          "type": "string"
        }
      ],
      "stateMutability": "view",
      "type": "function"
    }
  ],
  "transactionHash": "0x390a955b25609716b3a5cdad62f879c49ba29c9e5fff2dd65cff66959974e256",
  "args": [
    "0xb6bc3b49b3f6C4237851A6E1e918b40d843D8491"
  ],
  "numDeployments": 5,
  "solcInputHash": "8ffe4e0ac878508cfc7ce03d4f3cf145",
  "bytecode": "0x60806040523480156200001157600080fd5b5060405162001d7038038062001d70833981016040819052620000349162000185565b6040805160208101909152600081526200004e816200006c565b506200005a336200007e565b6200006581620000d0565b5062000328565b60026200007a82826200025c565b5050565b600380546001600160a01b038381166001600160a01b0319831681179093556040519116919082907f8be0079c531659141344cd1fd0a4f28419497f9722a3daafe3b4186f6b6457e090600090a35050565b620000da62000124565b6001600160a01b038116620001025760405163f3a6d77360e01b815260040160405180910390fd5b600480546001600160a01b0319166001600160a01b0392909216919091179055565b6003546001600160a01b03163314620001835760405162461bcd60e51b815260206004820181905260248201527f4f776e61626c653a2063616c6c6572206973206e6f7420746865206f776e6572604482015260640160405180910390fd5b565b6000602082840312156200019857600080fd5b81516001600160a01b0381168114620001b057600080fd5b9392505050565b634e487b7160e01b600052604160045260246000fd5b600181811c90821680620001e257607f821691505b6020821081036200020357634e487b7160e01b600052602260045260246000fd5b50919050565b601f8211156200025757600081815260208120601f850160051c81016020861015620002325750805b601f850160051c820191505b8181101562000253578281556001016200023e565b5050505b505050565b81516001600160401b03811115620002785762000278620001b7565b6200029081620002898454620001cd565b8462000209565b602080601f831160018114620002c85760008415620002af5750858301515b600019600386901b1c1916600185901b17855562000253565b600085815260208120601f198616915b82811015620002f957888601518255948401946001909101908401620002d8565b5085821015620003185787850151600019600388901b60f8161c191681555b5050505050600190811b01905550565b611a3880620003386000396000f3fe608060405234801561001057600080fd5b50600436106100ff5760003560e01c80638321b9f411610097578063a22cb46511610066578063a22cb46514610248578063e985e9c51461025b578063f242432a14610297578063f2fde38b146102aa57600080fd5b80638321b9f4146101dd5780638b9de214146101f05780638da5cb5b1461021057806398454f701461023557600080fd5b8063379607f5116100d3578063379607f5146101825780634e1273f4146101955780635d164a93146101b5578063715018a6146101d557600080fd5b8062fdd58e1461010457806301ffc9a71461012a5780630e89341c1461014d5780632eb2c2d61461016d575b600080fd5b61011761011236600461106f565b6102bd565b6040519081526020015b60405180910390f35b61013d6101383660046110b1565b610356565b6040519015158152602001610121565b61016061015b3660046110d5565b6103a6565b6040516101219190611134565b61018061017b3660046112bc565b61043a565b005b6101806101903660046110d5565b610486565b6101a86101a336600461136a565b6105f6565b6040516101219190611472565b6101176101c33660046110d5565b60056020526000908152604090205481565b610180610720565b6101806101eb366004611485565b610734565b6101176101fe3660046110d5565b60009081526005602052604090205490565b6003546001600160a01b03165b6040516001600160a01b039091168152602001610121565b60045461021d906001600160a01b031681565b6101806102563660046114a2565b610785565b61013d6102693660046114e0565b6001600160a01b03918216600090815260016020908152604080832093909416825291909152205460ff1690565b6101806102a536600461150e565b610794565b6101806102b8366004611485565b6107d9565b60006001600160a01b03831661032d5760405162461bcd60e51b815260206004820152602a60248201527f455243313135353a2061646472657373207a65726f206973206e6f742061207660448201526930b634b21037bbb732b960b11b60648201526084015b60405180910390fd5b506000818152602081815260408083206001600160a01b03861684529091529020545b92915050565b60006001600160e01b03198216636cdb3d1360e11b148061038757506001600160e01b031982166303a24d0760e21b145b8061035057506301ffc9a760e01b6001600160e01b0319831614610350565b6060600280546103b590611577565b80601f01602080910402602001604051908101604052809291908181526020018280546103e190611577565b801561042e5780601f106104035761010080835404028352916020019161042e565b820191906000526020600020905b81548152906001019060200180831161041157829003601f168201915b50505050509050919050565b6001600160a01b03851633148061045657506104568533610269565b6104725760405162461bcd60e51b8152600401610324906115b1565b61047f8585858585610852565b5050505050565b60048054604051631178279560e21b81529182018390526000916001600160a01b03909116906345e09e5490602401600060405180830381865afa1580156104d2573d6000803e3d6000fd5b505050506040513d6000823e601f3d908101601f191682016040526104fa9190810190611675565b80519091506001600160a01b0316331461052757604051639a7f9c3d60e01b815260040160405180910390fd5b6000828152600560205260409020546060820151811061055a5760405163b97ef83960e01b815260040160405180910390fd5b600081836060015161056c9190611742565b9050826060015160056000868152602001908152602001600020819055506105a98360000151858360405180602001604052806000815250610a2f565b825160408051868152602081018490526001600160a01b03909216917ff01da32686223933d8a18a391060918c7f11a3648639edd87ae013e2e2731743910160405180910390a250505050565b6060815183511461065b5760405162461bcd60e51b815260206004820152602960248201527f455243313135353a206163636f756e747320616e6420696473206c656e677468604482015268040dad2e6dac2e8c6d60bb1b6064820152608401610324565b6000835167ffffffffffffffff81111561067757610677611147565b6040519080825280602002602001820160405280156106a0578160200160208202803683370190505b50905060005b8451811015610718576106eb8582815181106106c4576106c4611755565b60200260200101518583815181106106de576106de611755565b60200260200101516102bd565b8282815181106106fd576106fd611755565b60209081029190910101526107118161176b565b90506106a6565b509392505050565b610728610b43565b6107326000610b9d565b565b61073c610b43565b6001600160a01b0381166107635760405163f3a6d77360e01b815260040160405180910390fd5b600480546001600160a01b0319166001600160a01b0392909216919091179055565b610790338383610bef565b5050565b6001600160a01b0385163314806107b057506107b08533610269565b6107cc5760405162461bcd60e51b8152600401610324906115b1565b61047f8585858585610ccf565b6107e1610b43565b6001600160a01b0381166108465760405162461bcd60e51b815260206004820152602660248201527f4f776e61626c653a206e6577206f776e657220697320746865207a65726f206160448201526564647265737360d01b6064820152608401610324565b61084f81610b9d565b50565b81518351146108b45760405162461bcd60e51b815260206004820152602860248201527f455243313135353a2069647320616e6420616d6f756e7473206c656e677468206044820152670dad2e6dac2e8c6d60c31b6064820152608401610324565b6001600160a01b0384166108da5760405162461bcd60e51b815260040161032490611784565b3360005b84518110156109c15760008582815181106108fb576108fb611755565b60200260200101519050600085838151811061091957610919611755565b602090810291909101810151600084815280835260408082206001600160a01b038e1683529093529190912054909150818110156109695760405162461bcd60e51b8152600401610324906117c9565b6000838152602081815260408083206001600160a01b038e8116855292528083208585039055908b168252812080548492906109a6908490611813565b92505081905550505050806109ba9061176b565b90506108de565b50846001600160a01b0316866001600160a01b0316826001600160a01b03167f4a39dc06d4c0dbc64b70af90fd698a233a518aa5d07e595d983b8c0526c8f7fb8787604051610a11929190611826565b60405180910390a4610a27818787878787610df9565b505050505050565b6001600160a01b038416610a8f5760405162461bcd60e51b815260206004820152602160248201527f455243313135353a206d696e7420746f20746865207a65726f206164647265736044820152607360f81b6064820152608401610324565b336000610a9b85610f54565b90506000610aa885610f54565b90506000868152602081815260408083206001600160a01b038b16845290915281208054879290610ada908490611813565b909155505060408051878152602081018790526001600160a01b03808a1692600092918716917fc3d58168c5ae7397731d063d5bbf3d657854427343f4c083240f7aacaa2d0f62910160405180910390a4610b3a83600089898989610f9f565b50505050505050565b6003546001600160a01b031633146107325760405162461bcd60e51b815260206004820181905260248201527f4f776e61626c653a2063616c6c6572206973206e6f7420746865206f776e65726044820152606401610324565b600380546001600160a01b038381166001600160a01b0319831681179093556040519116919082907f8be0079c531659141344cd1fd0a4f28419497f9722a3daafe3b4186f6b6457e090600090a35050565b816001600160a01b0316836001600160a01b031603610c625760405162461bcd60e51b815260206004820152602960248201527f455243313135353a2073657474696e6720617070726f76616c20737461747573604482015268103337b91039b2b63360b91b6064820152608401610324565b6001600160a01b03838116600081815260016020908152604080832094871680845294825291829020805460ff191686151590811790915591519182527f17307eab39ab6107e8899845ad3d59bd9653f200f220920489ca2b5937696c31910160405180910390a3505050565b6001600160a01b038416610cf55760405162461bcd60e51b815260040161032490611784565b336000610d0185610f54565b90506000610d0e85610f54565b90506000868152602081815260408083206001600160a01b038c16845290915290205485811015610d515760405162461bcd60e51b8152600401610324906117c9565b6000878152602081815260408083206001600160a01b038d8116855292528083208985039055908a16825281208054889290610d8e908490611813565b909155505060408051888152602081018890526001600160a01b03808b16928c821692918816917fc3d58168c5ae7397731d063d5bbf3d657854427343f4c083240f7aacaa2d0f62910160405180910390a4610dee848a8a8a8a8a610f9f565b505050505050505050565b6001600160a01b0384163b15610a275760405163bc197c8160e01b81526001600160a01b0385169063bc197c8190610e3d9089908990889088908890600401611854565b6020604051808303816000875af1925050508015610e78575060408051601f3d908101601f19168201909252610e75918101906118b2565b60015b610f2457610e846118cf565b806308c379a003610ebd5750610e986118eb565b80610ea35750610ebf565b8060405162461bcd60e51b81526004016103249190611134565b505b60405162461bcd60e51b815260206004820152603460248201527f455243313135353a207472616e7366657220746f206e6f6e2d455243313135356044820152732932b1b2b4bb32b91034b6b83632b6b2b73a32b960611b6064820152608401610324565b6001600160e01b0319811663bc197c8160e01b14610b3a5760405162461bcd60e51b815260040161032490611975565b60408051600180825281830190925260609160009190602080830190803683370190505090508281600081518110610f8e57610f8e611755565b602090810291909101015292915050565b6001600160a01b0384163b15610a275760405163f23a6e6160e01b81526001600160a01b0385169063f23a6e6190610fe390899089908890889088906004016119bd565b6020604051808303816000875af192505050801561101e575060408051601f3d908101601f1916820190925261101b918101906118b2565b60015b61102a57610e846118cf565b6001600160e01b0319811663f23a6e6160e01b14610b3a5760405162461bcd60e51b815260040161032490611975565b6001600160a01b038116811461084f57600080fd5b6000806040838503121561108257600080fd5b823561108d8161105a565b946020939093013593505050565b6001600160e01b03198116811461084f57600080fd5b6000602082840312156110c357600080fd5b81356110ce8161109b565b9392505050565b6000602082840312156110e757600080fd5b5035919050565b6000815180845260005b81811015611114576020818501810151868301820152016110f8565b506000602082860101526020601f19601f83011685010191505092915050565b6020815260006110ce60208301846110ee565b634e487b7160e01b600052604160045260246000fd5b601f8201601f1916810167ffffffffffffffff8111828210171561118357611183611147565b6040525050565b60405160e0810167ffffffffffffffff811182821017156111ad576111ad611147565b60405290565b600067ffffffffffffffff8211156111cd576111cd611147565b5060051b60200190565b600082601f8301126111e857600080fd5b813560206111f5826111b3565b604051611202828261115d565b83815260059390931b850182019282810191508684111561122257600080fd5b8286015b8481101561123d5780358352918301918301611226565b509695505050505050565b600082601f83011261125957600080fd5b813567ffffffffffffffff81111561127357611273611147565b60405161128a601f8301601f19166020018261115d565b81815284602083860101111561129f57600080fd5b816020850160208301376000918101602001919091529392505050565b600080600080600060a086880312156112d457600080fd5b85356112df8161105a565b945060208601356112ef8161105a565b9350604086013567ffffffffffffffff8082111561130c57600080fd5b61131889838a016111d7565b9450606088013591508082111561132e57600080fd5b61133a89838a016111d7565b9350608088013591508082111561135057600080fd5b5061135d88828901611248565b9150509295509295909350565b6000806040838503121561137d57600080fd5b823567ffffffffffffffff8082111561139557600080fd5b818501915085601f8301126113a957600080fd5b813560206113b6826111b3565b6040516113c3828261115d565b83815260059390931b85018201928281019150898411156113e357600080fd5b948201945b8386101561140a5785356113fb8161105a565b825294820194908201906113e8565b9650508601359250508082111561142057600080fd5b5061142d858286016111d7565b9150509250929050565b600081518084526020808501945080840160005b838110156114675781518752958201959082019060010161144b565b509495945050505050565b6020815260006110ce6020830184611437565b60006020828403121561149757600080fd5b81356110ce8161105a565b600080604083850312156114b557600080fd5b82356114c08161105a565b9150602083013580151581146114d557600080fd5b809150509250929050565b600080604083850312156114f357600080fd5b82356114fe8161105a565b915060208301356114d58161105a565b600080600080600060a0868803121561152657600080fd5b85356115318161105a565b945060208601356115418161105a565b93506040860135925060608601359150608086013567ffffffffffffffff81111561156b57600080fd5b61135d88828901611248565b600181811c9082168061158b57607f821691505b6020821081036115ab57634e487b7160e01b600052602260045260246000fd5b50919050565b6020808252602e908201527f455243313135353a2063616c6c6572206973206e6f7420746f6b656e206f776e60408201526d195c881bdc88185c1c1c9bdd995960921b606082015260800190565b805161160a8161105a565b919050565b600082601f83011261162057600080fd5b8151602061162d826111b3565b60405161163a828261115d565b83815260059390931b850182019282810191508684111561165a57600080fd5b8286015b8481101561123d578051835291830191830161165e565b60006020828403121561168757600080fd5b815167ffffffffffffffff8082111561169f57600080fd5b9083019060e082860312156116b357600080fd5b6116bb61118a565b6116c4836115ff565b81526116d2602084016115ff565b602082015260408301516040820152606083015160608201526080830151608082015260a083015160a082015260c08301518281111561171157600080fd5b61171d8782860161160f565b60c08301525095945050505050565b634e487b7160e01b600052601160045260246000fd5b818103818111156103505761035061172c565b634e487b7160e01b600052603260045260246000fd5b60006001820161177d5761177d61172c565b5060010190565b60208082526025908201527f455243313135353a207472616e7366657220746f20746865207a65726f206164604082015264647265737360d81b606082015260800190565b6020808252602a908201527f455243313135353a20696e73756666696369656e742062616c616e636520666f60408201526939103a3930b739b332b960b11b606082015260800190565b808201808211156103505761035061172c565b6040815260006118396040830185611437565b828103602084015261184b8185611437565b95945050505050565b6001600160a01b0386811682528516602082015260a06040820181905260009061188090830186611437565b82810360608401526118928186611437565b905082810360808401526118a681856110ee565b98975050505050505050565b6000602082840312156118c457600080fd5b81516110ce8161109b565b600060033d11156118e85760046000803e5060005160e01c5b90565b600060443d10156118f95790565b6040516003193d81016004833e81513d67ffffffffffffffff816024840111818411171561192957505050505090565b82850191508151818111156119415750505050505090565b843d870101602082850101111561195b5750505050505090565b61196a6020828601018761115d565b509095945050505050565b60208082526028908201527f455243313135353a204552433131353552656365697665722072656a656374656040820152676420746f6b656e7360c01b606082015260800190565b6001600160a01b03868116825285166020820152604081018490526060810183905260a0608082018190526000906119f7908301846110ee565b97965050505050505056fea264697066735822122053d1ea8d7afbcb2f3dc58dd65f6ffc7b9088a0a12037c4e9d9aa1102ff2282a764736f6c63430008130033",
  "devdoc": {
    "events": {
      "ApprovalForAll(address,address,bool)": {
        "details": "Emitted when `account` grants or revokes permission to `operator` to transfer their tokens, according to `approved`."
      },
      "TransferBatch(address,address,address,uint256[],uint256[])": {
        "details": "Equivalent to multiple {TransferSingle} events, where `operator`, `from` and `to` are the same for all transfers."
      },
      "TransferSingle(address,address,address,uint256,uint256)": {
        "details": "Emitted when `value` tokens of token type `id` are transferred from `from` to `to` by `operator`."
      },
      "URI(string,uint256)": {
        "details": "Emitted when the URI for token type `id` changes to `value`, if it is a non-programmatic URI. If an {URI} event was emitted for `id`, the standard https://eips.ethereum.org/EIPS/eip-1155#metadata-extensions[guarantees] that `value` will equal the value returned by {IERC1155MetadataURI-uri}."
      }
    },
    "kind": "dev",
    "methods": {
      "balanceOf(address,uint256)": {
        "details": "See {IERC1155-balanceOf}. Requirements: - `account` cannot be the zero address."
      },
      "balanceOfBatch(address[],uint256[])": {
        "details": "See {IERC1155-balanceOfBatch}. Requirements: - `accounts` and `ids` must have the same length."
      },
      "isApprovedForAll(address,address)": {
        "details": "See {IERC1155-isApprovedForAll}."
      },
      "owner()": {
        "details": "Returns the address of the current owner."
      },
      "renounceOwnership()": {
        "details": "Leaves the contract without owner. It will not be possible to call `onlyOwner` functions. Can only be called by the current owner. NOTE: Renouncing ownership will leave the contract without an owner, thereby disabling any functionality that is only available to the owner."
      },
      "safeBatchTransferFrom(address,address,uint256[],uint256[],bytes)": {
        "details": "See {IERC1155-safeBatchTransferFrom}."
      },
      "safeTransferFrom(address,address,uint256,uint256,bytes)": {
        "details": "See {IERC1155-safeTransferFrom}."
      },
      "setApprovalForAll(address,bool)": {
        "details": "See {IERC1155-setApprovalForAll}."
      },
      "supportsInterface(bytes4)": {
        "details": "See {IERC165-supportsInterface}."
      },
      "transferOwnership(address)": {
        "details": "Transfers ownership of the contract to a new account (`newOwner`). Can only be called by the current owner."
      },
      "uri(uint256)": {
        "details": "See {IERC1155MetadataURI-uri}. This implementation returns the same URI for *all* token types. It relies on the token type ID substitution mechanism https://eips.ethereum.org/EIPS/eip-1155#metadata[defined in the EIP]. Clients calling this function must replace the `\\{id\\}` substring with the actual token type ID."
      }
    },
    "version": 1
  },
  "userdoc": {
    "kind": "user",
    "methods": {},
    "version": 1
  },
  "storageLayout": {
    "storage": [
      {
        "astId": 138,
        "contract": "contracts/RewardToken.sol:RewardToken",
        "label": "_balances",
        "offset": 0,
        "slot": "0",
        "type": "t_mapping(t_uint256,t_mapping(t_address,t_uint256))"
      },
      {
        "astId": 144,
        "contract": "contracts/RewardToken.sol:RewardToken",
        "label": "_operatorApprovals",
        "offset": 0,
        "slot": "1",
        "type": "t_mapping(t_address,t_mapping(t_address,t_bool))"
      },
      {
        "astId": 146,
        "contract": "contracts/RewardToken.sol:RewardToken",
        "label": "_uri",
        "offset": 0,
        "slot": "2",
        "type": "t_string_storage"
      },
      {
        "astId": 7,
        "contract": "contracts/RewardToken.sol:RewardToken",
        "label": "_owner",
        "offset": 0,
        "slot": "3",
        "type": "t_address"
      },
      {
        "astId": 1937,
        "contract": "contracts/RewardToken.sol:RewardToken",
        "label": "game2048",
        "offset": 0,
        "slot": "4",
        "type": "t_contract(IGame2048)1930"
      },
      {
        "astId": 1941,
        "contract": "contracts/RewardToken.sol:RewardToken",
        "label": "lastClaimedScores",
        "offset": 0,
        "slot": "5",
        "type": "t_mapping(t_uint256,t_uint256)"
      }
    ],
    "types": {
      "t_address": {
        "encoding": "inplace",
        "label": "address",
        "numberOfBytes": "20"
      },
      "t_bool": {
        "encoding": "inplace",
        "label": "bool",
        "numberOfBytes": "1"
      },
      "t_contract(IGame2048)1930": {
        "encoding": "inplace",
        "label": "contract IGame2048",
        "numberOfBytes": "20"
      },
      "t_mapping(t_address,t_bool)": {
        "encoding": "mapping",
        "key": "t_address",
        "label": "mapping(address => bool)",
        "numberOfBytes": "32",
        "value": "t_bool"
      },
      "t_mapping(t_address,t_mapping(t_address,t_bool))": {
        "encoding": "mapping",
        "key": "t_address",
        "label": "mapping(address => mapping(address => bool))",
        "numberOfBytes": "32",
        "value": "t_mapping(t_address,t_bool)"
      },
      "t_mapping(t_address,t_uint256)": {
        "encoding": "mapping",
        "key": "t_address",
        "label": "mapping(address => uint256)",
        "numberOfBytes": "32",
        "value": "t_uint256"
      },
      "t_mapping(t_uint256,t_mapping(t_address,t_uint256))": {
        "encoding": "mapping",
        "key": "t_uint256",
        "label": "mapping(uint256 => mapping(address => uint256))",
        "numberOfBytes": "32",
        "value": "t_mapping(t_address,t_uint256)"
      },
      "t_mapping(t_uint256,t_uint256)": {
        "encoding": "mapping",
        "key": "t_uint256",
        "label": "mapping(uint256 => uint256)",
        "numberOfBytes": "32",
        "value": "t_uint256"
      },
      "t_string_storage": {
        "encoding": "bytes",
        "label": "string",
        "numberOfBytes": "32"
      },
      "t_uint256": {
        "encoding": "inplace",
        "label": "uint256",
        "numberOfBytes": "32"
      }
    }
  }
}