{
  "address": "0x558EEAE4e0af0563164C082A6f887c8010E7F758",
  "abi": [
    {
      "inputs": [
        {
          "internalType": "address",
          "name": "_game2048Address",
          "type": "address"
        }
      ],
      "stateMutability": "nonpayable",
      "type": "constructor"
    },
    {
      "inputs": [],
      "name": "InvalidGame2048Address",
      "type": "error"
    },
    {
      "inputs": [],
      "name": "NoNewScoreToClaim",
      "type": "error"
    },
    {
      "inputs": [],
      "name": "NotBoardOwner",
      "type": "error"
    },
    {
      "anonymous": false,
      "inputs": [
        {
          "indexed": true,
          "internalType": "address",
          "name": "account",
          "type": "address"
        },
        {
          "indexed": true,
          "internalType": "address",
          "name": "operator",
          "type": "address"
        },
        {
          "indexed": false,
          "internalType": "bool",
          "name": "approved",
          "type": "bool"
        }
      ],
      "name": "ApprovalForAll",
      "type": "event"
    },
    {
      "anonymous": false,
      "inputs": [
        {
          "indexed": true,
          "internalType": "address",
          "name": "previousOwner",
          "type": "address"
        },
        {
          "indexed": true,
          "internalType": "address",
          "name": "newOwner",
          "type": "address"
        }
      ],
      "name": "OwnershipTransferred",
      "type": "event"
    },
    {
      "anonymous": false,
      "inputs": [
        {
          "indexed": true,
          "internalType": "address",
          "name": "boardOwner",
          "type": "address"
        },
        {
          "indexed": false,
          "internalType": "uint256",
          "name": "boardId",
          "type": "uint256"
        },
        {
          "indexed": false,
          "internalType": "uint256",
          "name": "scoreToMint",
          "type": "uint256"
        }
      ],
      "name": "RewardClaimed",
      "type": "event"
    },
    {
      "anonymous": false,
      "inputs": [
        {
          "indexed": true,
          "internalType": "address",
          "name": "operator",
          "type": "address"
        },
        {
          "indexed": true,
          "internalType": "address",
          "name": "from",
          "type": "address"
        },
        {
          "indexed": true,
          "internalType": "address",
          "name": "to",
          "type": "address"
        },
        {
          "indexed": false,
          "internalType": "uint256[]",
          "name": "ids",
          "type": "uint256[]"
        },
        {
          "indexed": false,
          "internalType": "uint256[]",
          "name": "values",
          "type": "uint256[]"
        }
      ],
      "name": "TransferBatch",
      "type": "event"
    },
    {
      "anonymous": false,
      "inputs": [
        {
          "indexed": true,
          "internalType": "address",
          "name": "operator",
          "type": "address"
        },
        {
          "indexed": true,
          "internalType": "address",
          "name": "from",
          "type": "address"
        },
        {
          "indexed": true,
          "internalType": "address",
          "name": "to",
          "type": "address"
        },
        {
          "indexed": false,
          "internalType": "uint256",
          "name": "id",
          "type": "uint256"
        },
        {
          "indexed": false,
          "internalType": "uint256",
          "name": "value",
          "type": "uint256"
        }
      ],
      "name": "TransferSingle",
      "type": "event"
    },
    {
      "anonymous": false,
      "inputs": [
        {
          "indexed": false,
          "internalType": "string",
          "name": "value",
          "type": "string"
        },
        {
          "indexed": true,
          "internalType": "uint256",
          "name": "id",
          "type": "uint256"
        }
      ],
      "name": "URI",
      "type": "event"
    },
    {
      "inputs": [
        {
          "internalType": "address",
          "name": "account",
          "type": "address"
        },
        {
          "internalType": "uint256",
          "name": "id",
          "type": "uint256"
        }
      ],
      "name": "balanceOf",
      "outputs": [
        {
          "internalType": "uint256",
          "name": "",
          "type": "uint256"
        }
      ],
      "stateMutability": "view",
      "type": "function"
    },
    {
      "inputs": [
        {
          "internalType": "address[]",
          "name": "accounts",
          "type": "address[]"
        },
        {
          "internalType": "uint256[]",
          "name": "ids",
          "type": "uint256[]"
        }
      ],
      "name": "balanceOfBatch",
      "outputs": [
        {
          "internalType": "uint256[]",
          "name": "",
          "type": "uint256[]"
        }
      ],
      "stateMutability": "view",
      "type": "function"
    },
    {
      "inputs": [
        {
          "internalType": "uint256",
          "name": "boardId",
          "type": "uint256"
        }
      ],
      "name": "claim",
      "outputs": [],
      "stateMutability": "nonpayable",
      "type": "function"
    },
    {
      "inputs": [],
      "name": "game2048",
      "outputs": [
        {
          "internalType": "contract IGame2048",
          "name": "",
          "type": "address"
        }
      ],
      "stateMutability": "view",
      "type": "function"
    },
    {
      "inputs": [
        {
          "internalType": "uint256",
          "name": "boardId",
          "type": "uint256"
        }
      ],
      "name": "getLastClaimedScore",
      "outputs": [
        {
          "internalType": "uint256",
          "name": "",
          "type": "uint256"
        }
      ],
      "stateMutability": "view",
      "type": "function"
    },
    {
      "inputs": [
        {
          "internalType": "address",
          "name": "account",
          "type": "address"
        },
        {
          "internalType": "address",
          "name": "operator",
          "type": "address"
        }
      ],
      "name": "isApprovedForAll",
      "outputs": [
        {
          "internalType": "bool",
          "name": "",
          "type": "bool"
        }
      ],
      "stateMutability": "view",
      "type": "function"
    },
    {
      "inputs": [
        {
          "internalType": "uint256",
          "name": "",
          "type": "uint256"
        }
      ],
      "name": "lastClaimedScores",
      "outputs": [
        {
          "internalType": "uint256",
          "name": "",
          "type": "uint256"
        }
      ],
      "stateMutability": "view",
      "type": "function"
    },
    {
      "inputs": [],
      "name": "owner",
      "outputs": [
        {
          "internalType": "address",
          "name": "",
          "type": "address"
        }
      ],
      "stateMutability": "view",
      "type": "function"
    },
    {
      "inputs": [],
      "name": "renounceOwnership",
      "outputs": [],
      "stateMutability": "nonpayable",
      "type": "function"
    },
    {
      "inputs": [
        {
          "internalType": "address",
          "name": "from",
          "type": "address"
        },
        {
          "internalType": "address",
          "name": "to",
          "type": "address"
        },
        {
          "internalType": "uint256[]",
          "name": "ids",
          "type": "uint256[]"
        },
        {
          "internalType": "uint256[]",
          "name": "amounts",
          "type": "uint256[]"
        },
        {
          "internalType": "bytes",
          "name": "data",
          "type": "bytes"
        }
      ],
      "name": "safeBatchTransferFrom",
      "outputs": [],
      "stateMutability": "nonpayable",
      "type": "function"
    },
    {
      "inputs": [
        {
          "internalType": "address",
          "name": "from",
          "type": "address"
        },
        {
          "internalType": "address",
          "name": "to",
          "type": "address"
        },
        {
          "internalType": "uint256",
          "name": "id",
          "type": "uint256"
        },
        {
          "internalType": "uint256",
          "name": "amount",
          "type": "uint256"
        },
        {
          "internalType": "bytes",
          "name": "data",
          "type": "bytes"
        }
      ],
      "name": "safeTransferFrom",
      "outputs": [],
      "stateMutability": "nonpayable",
      "type": "function"
    },
    {
      "inputs": [
        {
          "internalType": "address",
          "name": "operator",
          "type": "address"
        },
        {
          "internalType": "bool",
          "name": "approved",
          "type": "bool"
        }
      ],
      "name": "setApprovalForAll",
      "outputs": [],
      "stateMutability": "nonpayable",
      "type": "function"
    },
    {
      "inputs": [
        {
          "internalType": "bytes4",
          "name": "interfaceId",
          "type": "bytes4"
        }
      ],
      "name": "supportsInterface",
      "outputs": [
        {
          "internalType": "bool",
          "name": "",
          "type": "bool"
        }
      ],
      "stateMutability": "view",
      "type": "function"
    },
    {
      "inputs": [
        {
          "internalType": "address",
          "name": "newOwner",
          "type": "address"
        }
      ],
      "name": "transferOwnership",
      "outputs": [],
      "stateMutability": "nonpayable",
      "type": "function"
    },
    {
      "inputs": [
        {
          "internalType": "uint256",
          "name": "",
          "type": "uint256"
        }
      ],
      "name": "uri",
      "outputs": [
        {
          "internalType": "string",
          "name": "",
          "type": "string"
        }
      ],
      "stateMutability": "view",
      "type": "function"
    }
  ],
  "args": [
    "0xb6bc3b49b3f6C4237851A6E1e918b40d843D8491"
  ],
  "numDeployments": 1,
  "solcInputHash": "87a6c98e675f853a9bbb09bae082edb8",
  "bytecode": "0x60806040523480156200001157600080fd5b5060405162001b4838038062001b4883398101604081905262000034916200010c565b6040805160208101909152600081526200004e81620000a8565b506200005a33620000ba565b6001600160a01b038116620000825760405163f3a6d77360e01b815260040160405180910390fd5b600480546001600160a01b0319166001600160a01b0392909216919091179055620002af565b6002620000b68282620001e3565b5050565b600380546001600160a01b038381166001600160a01b0319831681179093556040519116919082907f8be0079c531659141344cd1fd0a4f28419497f9722a3daafe3b4186f6b6457e090600090a35050565b6000602082840312156200011f57600080fd5b81516001600160a01b03811681146200013757600080fd5b9392505050565b634e487b7160e01b600052604160045260246000fd5b600181811c908216806200016957607f821691505b6020821081036200018a57634e487b7160e01b600052602260045260246000fd5b50919050565b601f821115620001de57600081815260208120601f850160051c81016020861015620001b95750805b601f850160051c820191505b81811015620001da57828155600101620001c5565b5050505b505050565b81516001600160401b03811115620001ff57620001ff6200013e565b620002178162000210845462000154565b8462000190565b602080601f8311600181146200024f5760008415620002365750858301515b600019600386901b1c1916600185901b178555620001da565b600085815260208120601f198616915b8281101562000280578886015182559484019460019091019084016200025f565b50858210156200029f5787850151600019600388901b60f8161c191681555b5050505050600190811b01905550565b61188980620002bf6000396000f3fe608060405234801561001057600080fd5b50600436106100f45760003560e01c8063715018a611610097578063a22cb46511610066578063a22cb4651461022a578063e985e9c51461023d578063f242432a14610279578063f2fde38b1461028c57600080fd5b8063715018a6146101ca5780638b9de214146101d25780638da5cb5b146101f257806398454f701461021757600080fd5b80632eb2c2d6116100d35780632eb2c2d614610162578063379607f5146101775780634e1273f41461018a5780635d164a93146101aa57600080fd5b8062fdd58e146100f957806301ffc9a71461011f5780630e89341c14610142575b600080fd5b61010c610107366004610fe8565b61029f565b6040519081526020015b60405180910390f35b61013261012d36600461102a565b610338565b6040519015158152602001610116565b61015561015036600461104e565b610388565b60405161011691906110ad565b61017561017036600461120c565b61041c565b005b61017561018536600461104e565b610468565b61019d6101983660046112ba565b6105c0565b60405161011691906113c2565b61010c6101b836600461104e565b60056020526000908152604090205481565b6101756106ea565b61010c6101e036600461104e565b60009081526005602052604090205490565b6003546001600160a01b03165b6040516001600160a01b039091168152602001610116565b6004546101ff906001600160a01b031681565b6101756102383660046113d5565b6106fe565b61013261024b366004611413565b6001600160a01b03918216600090815260016020908152604080832093909416825291909152205460ff1690565b610175610287366004611441565b61070d565b61017561029a3660046114aa565b610752565b60006001600160a01b03831661030f5760405162461bcd60e51b815260206004820152602a60248201527f455243313135353a2061646472657373207a65726f206973206e6f742061207660448201526930b634b21037bbb732b960b11b60648201526084015b60405180910390fd5b506000818152602081815260408083206001600160a01b03861684529091529020545b92915050565b60006001600160e01b03198216636cdb3d1360e11b148061036957506001600160e01b031982166303a24d0760e21b145b8061033257506301ffc9a760e01b6001600160e01b0319831614610332565b606060028054610397906114c7565b80601f01602080910402602001604051908101604052809291908181526020018280546103c3906114c7565b80156104105780601f106103e557610100808354040283529160200191610410565b820191906000526020600020905b8154815290600101906020018083116103f357829003601f168201915b50505050509050919050565b6001600160a01b0385163314806104385750610438853361024b565b6104545760405162461bcd60e51b815260040161030690611501565b61046185858585856107cb565b5050505050565b60048054604051631178279560e21b815291820183905260009182916001600160a01b0316906345e09e54906024016040805180830381865afa1580156104b3573d6000803e3d6000fd5b505050506040513d601f19601f820116820180604052508101906104d7919061154f565b9092509050336001600160a01b0383161461050557604051639a7f9c3d60e01b815260040160405180910390fd5b6000838152600560205260409020548082116105345760405163b97ef83960e01b815260040160405180910390fd5b60006105408284611593565b9050826005600087815260200190815260200160002081905550610575848683604051806020016040528060008152506109a8565b60408051868152602081018390526001600160a01b038616917ff01da32686223933d8a18a391060918c7f11a3648639edd87ae013e2e2731743910160405180910390a25050505050565b606081518351146106255760405162461bcd60e51b815260206004820152602960248201527f455243313135353a206163636f756e747320616e6420696473206c656e677468604482015268040dad2e6dac2e8c6d60bb1b6064820152608401610306565b6000835167ffffffffffffffff811115610641576106416110c0565b60405190808252806020026020018201604052801561066a578160200160208202803683370190505b50905060005b84518110156106e2576106b585828151811061068e5761068e6115a6565b60200260200101518583815181106106a8576106a86115a6565b602002602001015161029f565b8282815181106106c7576106c76115a6565b60209081029190910101526106db816115bc565b9050610670565b509392505050565b6106f2610abc565b6106fc6000610b16565b565b610709338383610b68565b5050565b6001600160a01b0385163314806107295750610729853361024b565b6107455760405162461bcd60e51b815260040161030690611501565b6104618585858585610c48565b61075a610abc565b6001600160a01b0381166107bf5760405162461bcd60e51b815260206004820152602660248201527f4f776e61626c653a206e6577206f776e657220697320746865207a65726f206160448201526564647265737360d01b6064820152608401610306565b6107c881610b16565b50565b815183511461082d5760405162461bcd60e51b815260206004820152602860248201527f455243313135353a2069647320616e6420616d6f756e7473206c656e677468206044820152670dad2e6dac2e8c6d60c31b6064820152608401610306565b6001600160a01b0384166108535760405162461bcd60e51b8152600401610306906115d5565b3360005b845181101561093a576000858281518110610874576108746115a6565b602002602001015190506000858381518110610892576108926115a6565b602090810291909101810151600084815280835260408082206001600160a01b038e1683529093529190912054909150818110156108e25760405162461bcd60e51b81526004016103069061161a565b6000838152602081815260408083206001600160a01b038e8116855292528083208585039055908b1682528120805484929061091f908490611664565b9250508190555050505080610933906115bc565b9050610857565b50846001600160a01b0316866001600160a01b0316826001600160a01b03167f4a39dc06d4c0dbc64b70af90fd698a233a518aa5d07e595d983b8c0526c8f7fb878760405161098a929190611677565b60405180910390a46109a0818787878787610d72565b505050505050565b6001600160a01b038416610a085760405162461bcd60e51b815260206004820152602160248201527f455243313135353a206d696e7420746f20746865207a65726f206164647265736044820152607360f81b6064820152608401610306565b336000610a1485610ecd565b90506000610a2185610ecd565b90506000868152602081815260408083206001600160a01b038b16845290915281208054879290610a53908490611664565b909155505060408051878152602081018790526001600160a01b03808a1692600092918716917fc3d58168c5ae7397731d063d5bbf3d657854427343f4c083240f7aacaa2d0f62910160405180910390a4610ab383600089898989610f18565b50505050505050565b6003546001600160a01b031633146106fc5760405162461bcd60e51b815260206004820181905260248201527f4f776e61626c653a2063616c6c6572206973206e6f7420746865206f776e65726044820152606401610306565b600380546001600160a01b038381166001600160a01b0319831681179093556040519116919082907f8be0079c531659141344cd1fd0a4f28419497f9722a3daafe3b4186f6b6457e090600090a35050565b816001600160a01b0316836001600160a01b031603610bdb5760405162461bcd60e51b815260206004820152602960248201527f455243313135353a2073657474696e6720617070726f76616c20737461747573604482015268103337b91039b2b63360b91b6064820152608401610306565b6001600160a01b03838116600081815260016020908152604080832094871680845294825291829020805460ff191686151590811790915591519182527f17307eab39ab6107e8899845ad3d59bd9653f200f220920489ca2b5937696c31910160405180910390a3505050565b6001600160a01b038416610c6e5760405162461bcd60e51b8152600401610306906115d5565b336000610c7a85610ecd565b90506000610c8785610ecd565b90506000868152602081815260408083206001600160a01b038c16845290915290205485811015610cca5760405162461bcd60e51b81526004016103069061161a565b6000878152602081815260408083206001600160a01b038d8116855292528083208985039055908a16825281208054889290610d07908490611664565b909155505060408051888152602081018890526001600160a01b03808b16928c821692918816917fc3d58168c5ae7397731d063d5bbf3d657854427343f4c083240f7aacaa2d0f62910160405180910390a4610d67848a8a8a8a8a610f18565b505050505050505050565b6001600160a01b0384163b156109a05760405163bc197c8160e01b81526001600160a01b0385169063bc197c8190610db690899089908890889088906004016116a5565b6020604051808303816000875af1925050508015610df1575060408051601f3d908101601f19168201909252610dee91810190611703565b60015b610e9d57610dfd611720565b806308c379a003610e365750610e1161173c565b80610e1c5750610e38565b8060405162461bcd60e51b815260040161030691906110ad565b505b60405162461bcd60e51b815260206004820152603460248201527f455243313135353a207472616e7366657220746f206e6f6e2d455243313135356044820152732932b1b2b4bb32b91034b6b83632b6b2b73a32b960611b6064820152608401610306565b6001600160e01b0319811663bc197c8160e01b14610ab35760405162461bcd60e51b8152600401610306906117c6565b60408051600180825281830190925260609160009190602080830190803683370190505090508281600081518110610f0757610f076115a6565b602090810291909101015292915050565b6001600160a01b0384163b156109a05760405163f23a6e6160e01b81526001600160a01b0385169063f23a6e6190610f5c908990899088908890889060040161180e565b6020604051808303816000875af1925050508015610f97575060408051601f3d908101601f19168201909252610f9491810190611703565b60015b610fa357610dfd611720565b6001600160e01b0319811663f23a6e6160e01b14610ab35760405162461bcd60e51b8152600401610306906117c6565b6001600160a01b03811681146107c857600080fd5b60008060408385031215610ffb57600080fd5b823561100681610fd3565b946020939093013593505050565b6001600160e01b0319811681146107c857600080fd5b60006020828403121561103c57600080fd5b813561104781611014565b9392505050565b60006020828403121561106057600080fd5b5035919050565b6000815180845260005b8181101561108d57602081850181015186830182015201611071565b506000602082860101526020601f19601f83011685010191505092915050565b6020815260006110476020830184611067565b634e487b7160e01b600052604160045260246000fd5b601f8201601f1916810167ffffffffffffffff811182821017156110fc576110fc6110c0565b6040525050565b600067ffffffffffffffff82111561111d5761111d6110c0565b5060051b60200190565b600082601f83011261113857600080fd5b8135602061114582611103565b60405161115282826110d6565b83815260059390931b850182019282810191508684111561117257600080fd5b8286015b8481101561118d5780358352918301918301611176565b509695505050505050565b600082601f8301126111a957600080fd5b813567ffffffffffffffff8111156111c3576111c36110c0565b6040516111da601f8301601f1916602001826110d6565b8181528460208386010111156111ef57600080fd5b816020850160208301376000918101602001919091529392505050565b600080600080600060a0868803121561122457600080fd5b853561122f81610fd3565b9450602086013561123f81610fd3565b9350604086013567ffffffffffffffff8082111561125c57600080fd5b61126889838a01611127565b9450606088013591508082111561127e57600080fd5b61128a89838a01611127565b935060808801359150808211156112a057600080fd5b506112ad88828901611198565b9150509295509295909350565b600080604083850312156112cd57600080fd5b823567ffffffffffffffff808211156112e557600080fd5b818501915085601f8301126112f957600080fd5b8135602061130682611103565b60405161131382826110d6565b83815260059390931b850182019282810191508984111561133357600080fd5b948201945b8386101561135a57853561134b81610fd3565b82529482019490820190611338565b9650508601359250508082111561137057600080fd5b5061137d85828601611127565b9150509250929050565b600081518084526020808501945080840160005b838110156113b75781518752958201959082019060010161139b565b509495945050505050565b6020815260006110476020830184611387565b600080604083850312156113e857600080fd5b82356113f381610fd3565b91506020830135801515811461140857600080fd5b809150509250929050565b6000806040838503121561142657600080fd5b823561143181610fd3565b9150602083013561140881610fd3565b600080600080600060a0868803121561145957600080fd5b853561146481610fd3565b9450602086013561147481610fd3565b93506040860135925060608601359150608086013567ffffffffffffffff81111561149e57600080fd5b6112ad88828901611198565b6000602082840312156114bc57600080fd5b813561104781610fd3565b600181811c908216806114db57607f821691505b6020821081036114fb57634e487b7160e01b600052602260045260246000fd5b50919050565b6020808252602e908201527f455243313135353a2063616c6c6572206973206e6f7420746f6b656e206f776e60408201526d195c881bdc88185c1c1c9bdd995960921b606082015260800190565b6000806040838503121561156257600080fd5b825161156d81610fd3565b6020939093015192949293505050565b634e487b7160e01b600052601160045260246000fd5b818103818111156103325761033261157d565b634e487b7160e01b600052603260045260246000fd5b6000600182016115ce576115ce61157d565b5060010190565b60208082526025908201527f455243313135353a207472616e7366657220746f20746865207a65726f206164604082015264647265737360d81b606082015260800190565b6020808252602a908201527f455243313135353a20696e73756666696369656e742062616c616e636520666f60408201526939103a3930b739b332b960b11b606082015260800190565b808201808211156103325761033261157d565b60408152600061168a6040830185611387565b828103602084015261169c8185611387565b95945050505050565b6001600160a01b0386811682528516602082015260a0604082018190526000906116d190830186611387565b82810360608401526116e38186611387565b905082810360808401526116f78185611067565b98975050505050505050565b60006020828403121561171557600080fd5b815161104781611014565b600060033d11156117395760046000803e5060005160e01c5b90565b600060443d101561174a5790565b6040516003193d81016004833e81513d67ffffffffffffffff816024840111818411171561177a57505050505090565b82850191508151818111156117925750505050505090565b843d87010160208285010111156117ac5750505050505090565b6117bb602082860101876110d6565b509095945050505050565b60208082526028908201527f455243313135353a204552433131353552656365697665722072656a656374656040820152676420746f6b656e7360c01b606082015260800190565b6001600160a01b03868116825285166020820152604081018490526060810183905260a06080820181905260009061184890830184611067565b97965050505050505056fea264697066735822122030bc1254377b44e259791c8adfcb22b3e20817b280021cac102eb2c57c8c07b564736f6c63430008130033",
  "devdoc": {
    "events": {
      "ApprovalForAll(address,address,bool)": {
        "details": "Emitted when `account` grants or revokes permission to `operator` to transfer their tokens, according to `approved`."
      },
      "TransferBatch(address,address,address,uint256[],uint256[])": {
        "details": "Equivalent to multiple {TransferSingle} events, where `operator`, `from` and `to` are the same for all transfers."
      },
      "TransferSingle(address,address,address,uint256,uint256)": {
        "details": "Emitted when `value` tokens of token type `id` are transferred from `from` to `to` by `operator`."
      },
      "URI(string,uint256)": {
        "details": "Emitted when the URI for token type `id` changes to `value`, if it is a non-programmatic URI. If an {URI} event was emitted for `id`, the standard https://eips.ethereum.org/EIPS/eip-1155#metadata-extensions[guarantees] that `value` will equal the value returned by {IERC1155MetadataURI-uri}."
      }
    },
    "kind": "dev",
    "methods": {
      "balanceOf(address,uint256)": {
        "details": "See {IERC1155-balanceOf}. Requirements: - `account` cannot be the zero address."
      },
      "balanceOfBatch(address[],uint256[])": {
        "details": "See {IERC1155-balanceOfBatch}. Requirements: - `accounts` and `ids` must have the same length."
      },
      "isApprovedForAll(address,address)": {
        "details": "See {IERC1155-isApprovedForAll}."
      },
      "owner()": {
        "details": "Returns the address of the current owner."
      },
      "renounceOwnership()": {
        "details": "Leaves the contract without owner. It will not be possible to call `onlyOwner` functions. Can only be called by the current owner. NOTE: Renouncing ownership will leave the contract without an owner, thereby disabling any functionality that is only available to the owner."
      },
      "safeBatchTransferFrom(address,address,uint256[],uint256[],bytes)": {
        "details": "See {IERC1155-safeBatchTransferFrom}."
      },
      "safeTransferFrom(address,address,uint256,uint256,bytes)": {
        "details": "See {IERC1155-safeTransferFrom}."
      },
      "setApprovalForAll(address,bool)": {
        "details": "See {IERC1155-setApprovalForAll}."
      },
      "supportsInterface(bytes4)": {
        "details": "See {IERC165-supportsInterface}."
      },
      "transferOwnership(address)": {
        "details": "Transfers ownership of the contract to a new account (`newOwner`). Can only be called by the current owner."
      },
      "uri(uint256)": {
        "details": "See {IERC1155MetadataURI-uri}. This implementation returns the same URI for *all* token types. It relies on the token type ID substitution mechanism https://eips.ethereum.org/EIPS/eip-1155#metadata[defined in the EIP]. Clients calling this function must replace the `\\{id\\}` substring with the actual token type ID."
      }
    },
    "version": 1
  },
  "userdoc": {
    "kind": "user",
    "methods": {},
    "version": 1
  },
  "storageLayout": {
    "storage": [
      {
        "astId": 138,
        "contract": "contracts/RewardToken.sol:RewardToken",
        "label": "_balances",
        "offset": 0,
        "slot": "0",
        "type": "t_mapping(t_uint256,t_mapping(t_address,t_uint256))"
      },
      {
        "astId": 144,
        "contract": "contracts/RewardToken.sol:RewardToken",
        "label": "_operatorApprovals",
        "offset": 0,
        "slot": "1",
        "type": "t_mapping(t_address,t_mapping(t_address,t_bool))"
      },
      {
        "astId": 146,
        "contract": "contracts/RewardToken.sol:RewardToken",
        "label": "_uri",
        "offset": 0,
        "slot": "2",
        "type": "t_string_storage"
      },
      {
        "astId": 7,
        "contract": "contracts/RewardToken.sol:RewardToken",
        "label": "_owner",
        "offset": 0,
        "slot": "3",
        "type": "t_address"
      },
      {
        "astId": 1922,
        "contract": "contracts/RewardToken.sol:RewardToken",
        "label": "game2048",
        "offset": 0,
        "slot": "4",
        "type": "t_contract(IGame2048)1915"
      },
      {
        "astId": 1926,
        "contract": "contracts/RewardToken.sol:RewardToken",
        "label": "lastClaimedScores",
        "offset": 0,
        "slot": "5",
        "type": "t_mapping(t_uint256,t_uint256)"
      }
    ],
    "types": {
      "t_address": {
        "encoding": "inplace",
        "label": "address",
        "numberOfBytes": "20"
      },
      "t_bool": {
        "encoding": "inplace",
        "label": "bool",
        "numberOfBytes": "1"
      },
      "t_contract(IGame2048)1915": {
        "encoding": "inplace",
        "label": "contract IGame2048",
        "numberOfBytes": "20"
      },
      "t_mapping(t_address,t_bool)": {
        "encoding": "mapping",
        "key": "t_address",
        "label": "mapping(address => bool)",
        "numberOfBytes": "32",
        "value": "t_bool"
      },
      "t_mapping(t_address,t_mapping(t_address,t_bool))": {
        "encoding": "mapping",
        "key": "t_address",
        "label": "mapping(address => mapping(address => bool))",
        "numberOfBytes": "32",
        "value": "t_mapping(t_address,t_bool)"
      },
      "t_mapping(t_address,t_uint256)": {
        "encoding": "mapping",
        "key": "t_address",
        "label": "mapping(address => uint256)",
        "numberOfBytes": "32",
        "value": "t_uint256"
      },
      "t_mapping(t_uint256,t_mapping(t_address,t_uint256))": {
        "encoding": "mapping",
        "key": "t_uint256",
        "label": "mapping(uint256 => mapping(address => uint256))",
        "numberOfBytes": "32",
        "value": "t_mapping(t_address,t_uint256)"
      },
      "t_mapping(t_uint256,t_uint256)": {
        "encoding": "mapping",
        "key": "t_uint256",
        "label": "mapping(uint256 => uint256)",
        "numberOfBytes": "32",
        "value": "t_uint256"
      },
      "t_string_storage": {
        "encoding": "bytes",
        "label": "string",
        "numberOfBytes": "32"
      },
      "t_uint256": {
        "encoding": "inplace",
        "label": "uint256",
        "numberOfBytes": "32"
      }
    }
  }
}